{
  "_format": "hh-sol-artifact-1",
  "contractName": "StakingHub",
  "sourceName": "contracts/StakingHub.sol",
  "abi": [
    {
      "inputs": [
        {
          "internalType": "address",
          "name": "value",
          "type": "address"
        }
      ],
      "name": "AddressSet_DuplicatedValue",
      "type": "error"
    },
    {
      "inputs": [
        {
          "internalType": "address",
          "name": "value",
          "type": "address"
        }
      ],
      "name": "AddressSet_ValueNotFound",
      "type": "error"
    },
    {
      "inputs": [],
      "name": "AlreadyRegistered",
      "type": "error"
    },
    {
      "inputs": [],
      "name": "FailedTransfer",
      "type": "error"
    },
    {
      "inputs": [],
      "name": "FeeTooLow",
      "type": "error"
    },
    {
      "inputs": [],
      "name": "InvalidAddress",
      "type": "error"
    },
    {
      "inputs": [],
      "name": "InvalidBlockValue",
      "type": "error"
    },
    {
      "inputs": [],
      "name": "InvalidMiner",
      "type": "error"
    },
    {
      "inputs": [],
      "name": "InvalidModel",
      "type": "error"
    },
    {
      "inputs": [],
      "name": "InvalidTier",
      "type": "error"
    },
    {
      "inputs": [],
      "name": "InvalidValue",
      "type": "error"
    },
    {
      "inputs": [],
      "name": "InvalidWorkerHub",
      "type": "error"
    },
    {
      "inputs": [],
      "name": "MinerInDeactivationTime",
      "type": "error"
    },
    {
      "inputs": [],
      "name": "NotRegistered",
      "type": "error"
    },
    {
      "inputs": [],
      "name": "NullStake",
      "type": "error"
    },
    {
      "inputs": [],
      "name": "SameModelAddress",
      "type": "error"
    },
    {
      "inputs": [],
      "name": "StakeTooLow",
      "type": "error"
    },
    {
      "inputs": [],
      "name": "StillBeingLocked",
      "type": "error"
    },
    {
      "inputs": [],
      "name": "ZeroValue",
      "type": "error"
    },
    {
      "anonymous": false,
      "inputs": [
        {
          "indexed": false,
          "internalType": "uint256",
          "name": "oldBlocks",
          "type": "uint256"
        },
        {
          "indexed": false,
          "internalType": "uint256",
          "name": "newBlocks",
          "type": "uint256"
        }
      ],
      "name": "BlocksPerEpoch",
      "type": "event"
    },
    {
      "anonymous": false,
      "inputs": [
        {
          "indexed": false,
          "internalType": "uint16",
          "name": "oldPercent",
          "type": "uint16"
        },
        {
          "indexed": false,
          "internalType": "uint16",
          "name": "newPercent",
          "type": "uint16"
        }
      ],
      "name": "FinePercentageUpdated",
      "type": "event"
    },
    {
      "anonymous": false,
      "inputs": [
        {
          "indexed": true,
          "internalType": "address",
          "name": "miner",
          "type": "address"
        },
        {
          "indexed": true,
          "internalType": "address",
          "name": "modelAddress",
          "type": "address"
        },
        {
          "indexed": true,
          "internalType": "address",
          "name": "treasury",
          "type": "address"
        },
        {
          "indexed": false,
          "internalType": "uint256",
          "name": "fine",
          "type": "uint256"
        }
      ],
      "name": "FraudulentMinerPenalized",
      "type": "event"
    },
    {
      "anonymous": false,
      "inputs": [
        {
          "indexed": false,
          "internalType": "uint8",
          "name": "version",
          "type": "uint8"
        }
      ],
      "name": "Initialized",
      "type": "event"
    },
    {
      "anonymous": false,
      "inputs": [
        {
          "indexed": false,
          "internalType": "uint256",
          "name": "oldValue",
          "type": "uint256"
        },
        {
          "indexed": false,
          "internalType": "uint256",
          "name": "newValue",
          "type": "uint256"
        }
      ],
      "name": "MinFeeToUseUpdated",
      "type": "event"
    },
    {
      "anonymous": false,
      "inputs": [
        {
          "indexed": true,
          "internalType": "address",
          "name": "miner",
          "type": "address"
        },
        {
          "indexed": true,
          "internalType": "address",
          "name": "modelAddress",
          "type": "address"
        },
        {
          "indexed": false,
          "internalType": "uint40",
          "name": "activeTime",
          "type": "uint40"
        }
      ],
      "name": "MinerDeactivated",
      "type": "event"
    },
    {
      "anonymous": false,
      "inputs": [
        {
          "indexed": true,
          "internalType": "address",
          "name": "miner",
          "type": "address"
        },
        {
          "indexed": false,
          "internalType": "uint256",
          "name": "value",
          "type": "uint256"
        }
      ],
      "name": "MinerExtraStake",
      "type": "event"
    },
    {
      "anonymous": false,
      "inputs": [
        {
          "indexed": true,
          "internalType": "address",
          "name": "miner",
          "type": "address"
        }
      ],
      "name": "MinerJoin",
      "type": "event"
    },
    {
      "anonymous": false,
      "inputs": [
        {
          "indexed": true,
          "internalType": "address",
          "name": "miner",
          "type": "address"
        },
        {
          "indexed": true,
          "internalType": "uint16",
          "name": "tier",
          "type": "uint16"
        },
        {
          "indexed": false,
          "internalType": "uint256",
          "name": "value",
          "type": "uint256"
        }
      ],
      "name": "MinerRegistration",
      "type": "event"
    },
    {
      "anonymous": false,
      "inputs": [
        {
          "indexed": true,
          "internalType": "address",
          "name": "miner",
          "type": "address"
        }
      ],
      "name": "MinerUnregistration",
      "type": "event"
    },
    {
      "anonymous": false,
      "inputs": [
        {
          "indexed": true,
          "internalType": "address",
          "name": "miner",
          "type": "address"
        },
        {
          "indexed": false,
          "internalType": "uint256",
          "name": "stake",
          "type": "uint256"
        }
      ],
      "name": "MinerUnstake",
      "type": "event"
    },
    {
      "anonymous": false,
      "inputs": [
        {
          "indexed": true,
          "internalType": "address",
          "name": "model",
          "type": "address"
        },
        {
          "indexed": false,
          "internalType": "uint256",
          "name": "minimumFee",
          "type": "uint256"
        }
      ],
      "name": "ModelMinimumFeeUpdate",
      "type": "event"
    },
    {
      "anonymous": false,
      "inputs": [
        {
          "indexed": true,
          "internalType": "address",
          "name": "model",
          "type": "address"
        },
        {
          "indexed": true,
          "internalType": "uint16",
          "name": "tier",
          "type": "uint16"
        },
        {
          "indexed": false,
          "internalType": "uint256",
          "name": "minimumFee",
          "type": "uint256"
        }
      ],
      "name": "ModelRegistration",
      "type": "event"
    },
    {
      "anonymous": false,
      "inputs": [
        {
          "indexed": true,
          "internalType": "address",
          "name": "model",
          "type": "address"
        },
        {
          "indexed": false,
          "internalType": "uint32",
          "name": "tier",
          "type": "uint32"
        }
      ],
      "name": "ModelTierUpdate",
      "type": "event"
    },
    {
      "anonymous": false,
      "inputs": [
        {
          "indexed": true,
          "internalType": "address",
          "name": "model",
          "type": "address"
        }
      ],
      "name": "ModelUnregistration",
      "type": "event"
    },
    {
      "anonymous": false,
      "inputs": [
        {
          "indexed": true,
          "internalType": "address",
          "name": "previousOwner",
          "type": "address"
        },
        {
          "indexed": true,
          "internalType": "address",
          "name": "newOwner",
          "type": "address"
        }
      ],
      "name": "OwnershipTransferred",
      "type": "event"
    },
    {
      "anonymous": false,
      "inputs": [
        {
          "indexed": false,
          "internalType": "address",
          "name": "account",
          "type": "address"
        }
      ],
      "name": "Paused",
      "type": "event"
    },
    {
      "anonymous": false,
      "inputs": [
        {
          "indexed": false,
          "internalType": "uint40",
          "name": "oldDuration",
          "type": "uint40"
        },
        {
          "indexed": false,
          "internalType": "uint40",
          "name": "newDuration",
          "type": "uint40"
        }
      ],
      "name": "PenaltyDurationUpdated",
      "type": "event"
    },
    {
      "anonymous": false,
      "inputs": [
        {
          "indexed": true,
          "internalType": "address",
          "name": "miner",
          "type": "address"
        },
        {
          "indexed": false,
          "internalType": "uint256",
          "name": "restake",
          "type": "uint256"
        },
        {
          "indexed": true,
          "internalType": "address",
          "name": "model",
          "type": "address"
        }
      ],
      "name": "Restake",
      "type": "event"
    },
    {
      "anonymous": false,
      "inputs": [
        {
          "indexed": true,
          "internalType": "address",
          "name": "worker",
          "type": "address"
        },
        {
          "indexed": false,
          "internalType": "uint256",
          "name": "value",
          "type": "uint256"
        }
      ],
      "name": "RewardClaim",
      "type": "event"
    },
    {
      "anonymous": false,
      "inputs": [
        {
          "indexed": false,
          "internalType": "uint256",
          "name": "oldReward",
          "type": "uint256"
        },
        {
          "indexed": false,
          "internalType": "uint256",
          "name": "newReward",
          "type": "uint256"
        }
      ],
      "name": "RewardPerEpoch",
      "type": "event"
    },
    {
      "anonymous": false,
      "inputs": [
        {
          "indexed": false,
          "internalType": "address",
          "name": "account",
          "type": "address"
        }
      ],
      "name": "Unpaused",
      "type": "event"
    },
    {
      "anonymous": false,
      "inputs": [
        {
          "indexed": false,
          "internalType": "uint256",
          "name": "oldDelayTime",
          "type": "uint256"
        },
        {
          "indexed": false,
          "internalType": "uint256",
          "name": "newDelayTime",
          "type": "uint256"
        }
      ],
      "name": "UnstakeDelayTime",
      "type": "event"
    },
    {
      "inputs": [],
      "name": "blocksPerEpoch",
      "outputs": [
        {
          "internalType": "uint256",
          "name": "",
          "type": "uint256"
        }
      ],
      "stateMutability": "view",
      "type": "function"
    },
    {
      "inputs": [
        {
          "internalType": "address",
          "name": "_miner",
          "type": "address"
        }
      ],
      "name": "claimReward",
      "outputs": [],
      "stateMutability": "nonpayable",
      "type": "function"
    },
    {
      "inputs": [],
      "name": "currentEpoch",
      "outputs": [
        {
          "internalType": "uint40",
          "name": "",
          "type": "uint40"
        }
      ],
      "stateMutability": "view",
      "type": "function"
    },
    {
      "inputs": [],
      "name": "finePercentage",
      "outputs": [
        {
          "internalType": "uint16",
          "name": "",
          "type": "uint16"
        }
      ],
      "stateMutability": "view",
      "type": "function"
    },
    {
      "inputs": [
        {
          "internalType": "address",
          "name": "_miner",
          "type": "address"
        },
        {
          "internalType": "address",
          "name": "_modelAddress",
          "type": "address"
        }
      ],
      "name": "forceChangeModelForMiner",
      "outputs": [],
      "stateMutability": "nonpayable",
      "type": "function"
    },
    {
      "inputs": [],
      "name": "getAllMinerUnstakeRequests",
      "outputs": [
        {
          "internalType": "address[]",
          "name": "unstakeAddresses",
          "type": "address[]"
        },
        {
          "components": [
            {
              "internalType": "uint256",
              "name": "stake",
              "type": "uint256"
            },
            {
              "internalType": "uint40",
              "name": "unlockAt",
              "type": "uint40"
            }
          ],
          "internalType": "struct IStakingHub.UnstakeRequest[]",
          "name": "unstakeRequests",
          "type": "tuple[]"
        }
      ],
      "stateMutability": "view",
      "type": "function"
    },
    {
      "inputs": [
        {
          "internalType": "address",
          "name": "_modelAddress",
          "type": "address"
        }
      ],
      "name": "getMinFeeToUse",
      "outputs": [
        {
          "internalType": "uint256",
          "name": "",
          "type": "uint256"
        }
      ],
      "stateMutability": "view",
      "type": "function"
    },
    {
      "inputs": [],
      "name": "getMinerAddresses",
      "outputs": [
        {
          "internalType": "address[]",
          "name": "",
          "type": "address[]"
        }
      ],
      "stateMutability": "view",
      "type": "function"
    },
    {
      "inputs": [
        {
          "internalType": "address",
          "name": "_model",
          "type": "address"
        }
      ],
      "name": "getMinerAddressesOfModel",
      "outputs": [
        {
          "internalType": "address[]",
          "name": "",
          "type": "address[]"
        }
      ],
      "stateMutability": "view",
      "type": "function"
    },
    {
      "inputs": [],
      "name": "getModelAddresses",
      "outputs": [
        {
          "internalType": "address[]",
          "name": "",
          "type": "address[]"
        }
      ],
      "stateMutability": "view",
      "type": "function"
    },
    {
      "inputs": [
        {
          "internalType": "address",
          "name": "_modelAddr",
          "type": "address"
        }
      ],
      "name": "getModelInfo",
      "outputs": [
        {
          "components": [
            {
              "internalType": "uint256",
              "name": "minimumFee",
              "type": "uint256"
            },
            {
              "internalType": "uint32",
              "name": "tier",
              "type": "uint32"
            }
          ],
          "internalType": "struct IStakingHub.Model",
          "name": "",
          "type": "tuple"
        }
      ],
      "stateMutability": "view",
      "type": "function"
    },
    {
      "inputs": [],
      "name": "getNOMiner",
      "outputs": [
        {
          "internalType": "uint256",
          "name": "",
          "type": "uint256"
        }
      ],
      "stateMutability": "view",
      "type": "function"
    },
    {
      "inputs": [
        {
          "internalType": "uint256",
          "name": "wEAIAmt",
          "type": "uint256"
        }
      ],
      "name": "increaseMinerStake",
      "outputs": [],
      "stateMutability": "nonpayable",
      "type": "function"
    },
    {
      "inputs": [
        {
          "internalType": "address",
          "name": "_wEAI",
          "type": "address"
        },
        {
          "internalType": "uint256",
          "name": "_minerMinimumStake",
          "type": "uint256"
        },
        {
          "internalType": "uint256",
          "name": "_blocksPerEpoch",
          "type": "uint256"
        },
        {
          "internalType": "uint256",
          "name": "_rewardPerEpoch",
          "type": "uint256"
        },
        {
          "internalType": "uint40",
          "name": "_unstakeDelayTime",
          "type": "uint40"
        },
        {
          "internalType": "uint40",
          "name": "_penaltyDuration",
          "type": "uint40"
        },
        {
          "internalType": "uint16",
          "name": "_finePercentage",
          "type": "uint16"
        },
        {
          "internalType": "uint256",
          "name": "_minFeeToUse",
          "type": "uint256"
        }
      ],
      "name": "initialize",
      "outputs": [],
      "stateMutability": "nonpayable",
      "type": "function"
    },
    {
      "inputs": [
        {
          "internalType": "address",
          "name": "_miner",
          "type": "address"
        }
      ],
      "name": "isMinerAddress",
      "outputs": [
        {
          "internalType": "bool",
          "name": "",
          "type": "bool"
        }
      ],
      "stateMutability": "view",
      "type": "function"
    },
    {
      "inputs": [],
      "name": "joinForMinting",
      "outputs": [],
      "stateMutability": "nonpayable",
      "type": "function"
    },
    {
      "inputs": [],
      "name": "lastBlock",
      "outputs": [
        {
          "internalType": "uint256",
          "name": "",
          "type": "uint256"
        }
      ],
      "stateMutability": "view",
      "type": "function"
    },
    {
      "inputs": [],
      "name": "maximumTier",
      "outputs": [
        {
          "internalType": "uint16",
          "name": "",
          "type": "uint16"
        }
      ],
      "stateMutability": "view",
      "type": "function"
    },
    {
      "inputs": [],
      "name": "minFeeToUse",
      "outputs": [
        {
          "internalType": "uint256",
          "name": "",
          "type": "uint256"
        }
      ],
      "stateMutability": "view",
      "type": "function"
    },
    {
      "inputs": [],
      "name": "minerMinimumStake",
      "outputs": [
        {
          "internalType": "uint256",
          "name": "",
          "type": "uint256"
        }
      ],
      "stateMutability": "view",
      "type": "function"
    },
    {
      "inputs": [
        {
          "internalType": "address",
          "name": "",
          "type": "address"
        }
      ],
      "name": "minerUnstakeRequests",
      "outputs": [
        {
          "internalType": "uint256",
          "name": "stake",
          "type": "uint256"
        },
        {
          "internalType": "uint40",
          "name": "unlockAt",
          "type": "uint40"
        }
      ],
      "stateMutability": "view",
      "type": "function"
    },
    {
      "inputs": [
        {
          "internalType": "address",
          "name": "",
          "type": "address"
        }
      ],
      "name": "miners",
      "outputs": [
        {
          "internalType": "uint256",
          "name": "stake",
          "type": "uint256"
        },
        {
          "internalType": "uint256",
          "name": "commitment",
          "type": "uint256"
        },
        {
          "internalType": "address",
          "name": "modelAddress",
          "type": "address"
        },
        {
          "internalType": "uint40",
          "name": "lastClaimedEpoch",
          "type": "uint40"
        },
        {
          "internalType": "uint40",
          "name": "activeTime",
          "type": "uint40"
        },
        {
          "internalType": "uint16",
          "name": "tier",
          "type": "uint16"
        }
      ],
      "stateMutability": "view",
      "type": "function"
    },
    {
      "inputs": [
        {
          "internalType": "address",
          "name": "",
          "type": "address"
        }
      ],
      "name": "models",
      "outputs": [
        {
          "internalType": "uint256",
          "name": "minimumFee",
          "type": "uint256"
        },
        {
          "internalType": "uint32",
          "name": "tier",
          "type": "uint32"
        }
      ],
      "stateMutability": "view",
      "type": "function"
    },
    {
      "inputs": [
        {
          "internalType": "address",
          "name": "_miner",
          "type": "address"
        }
      ],
      "name": "multiplier",
      "outputs": [
        {
          "internalType": "uint256",
          "name": "",
          "type": "uint256"
        }
      ],
      "stateMutability": "view",
      "type": "function"
    },
    {
      "inputs": [],
      "name": "owner",
      "outputs": [
        {
          "internalType": "address",
          "name": "",
          "type": "address"
        }
      ],
      "stateMutability": "view",
      "type": "function"
    },
    {
      "inputs": [],
      "name": "paused",
      "outputs": [
        {
          "internalType": "bool",
          "name": "",
          "type": "bool"
        }
      ],
      "stateMutability": "view",
      "type": "function"
    },
    {
      "inputs": [],
      "name": "penaltyDuration",
      "outputs": [
        {
          "internalType": "uint40",
          "name": "",
          "type": "uint40"
        }
      ],
      "stateMutability": "view",
      "type": "function"
    },
    {
      "inputs": [
        {
          "internalType": "uint16",
          "name": "tier",
          "type": "uint16"
        }
      ],
      "name": "registerMiner",
      "outputs": [],
      "stateMutability": "nonpayable",
      "type": "function"
    },
    {
      "inputs": [
        {
          "internalType": "address",
          "name": "_model",
          "type": "address"
        },
        {
          "internalType": "uint16",
          "name": "_tier",
          "type": "uint16"
        },
        {
          "internalType": "uint256",
          "name": "_minimumFee",
          "type": "uint256"
        }
      ],
      "name": "registerModel",
      "outputs": [],
      "stateMutability": "nonpayable",
      "type": "function"
    },
    {
      "inputs": [],
      "name": "renounceOwnership",
      "outputs": [],
      "stateMutability": "nonpayable",
      "type": "function"
    },
    {
      "inputs": [
        {
          "internalType": "uint16",
          "name": "tier",
          "type": "uint16"
        }
      ],
      "name": "restakeForMiner",
      "outputs": [],
      "stateMutability": "nonpayable",
      "type": "function"
    },
    {
      "inputs": [
        {
          "internalType": "uint256",
          "name": "",
          "type": "uint256"
        }
      ],
      "name": "rewardInEpoch",
      "outputs": [
        {
          "internalType": "uint256",
          "name": "perfReward",
          "type": "uint256"
        },
        {
          "internalType": "uint256",
          "name": "epochReward",
          "type": "uint256"
        },
        {
          "internalType": "uint256",
          "name": "totalTaskCompleted",
          "type": "uint256"
        },
        {
          "internalType": "uint256",
          "name": "totalMiner",
          "type": "uint256"
        }
      ],
      "stateMutability": "view",
      "type": "function"
    },
    {
      "inputs": [],
      "name": "rewardPerEpoch",
      "outputs": [
        {
          "internalType": "uint256",
          "name": "",
          "type": "uint256"
        }
      ],
      "stateMutability": "view",
      "type": "function"
    },
    {
      "inputs": [
        {
          "internalType": "address",
          "name": "_miner",
          "type": "address"
        }
      ],
      "name": "rewardToClaim",
      "outputs": [
        {
          "internalType": "uint256",
          "name": "",
          "type": "uint256"
        }
      ],
      "stateMutability": "nonpayable",
      "type": "function"
    },
    {
      "inputs": [
        {
          "internalType": "uint256",
          "name": "_blocks",
          "type": "uint256"
        }
      ],
      "name": "setBlocksPerEpoch",
      "outputs": [],
      "stateMutability": "nonpayable",
      "type": "function"
    },
    {
      "inputs": [
        {
          "internalType": "uint16",
          "name": "_finePercentage",
          "type": "uint16"
        }
      ],
      "name": "setFinePercentage",
      "outputs": [],
      "stateMutability": "nonpayable",
      "type": "function"
    },
    {
      "inputs": [
        {
          "internalType": "uint256",
          "name": "_minFeeToUse",
          "type": "uint256"
        }
      ],
      "name": "setMinFeeToUse",
      "outputs": [],
      "stateMutability": "nonpayable",
      "type": "function"
    },
    {
      "inputs": [
        {
          "internalType": "uint256",
          "name": "_minerMinimumStake",
          "type": "uint256"
        }
      ],
      "name": "setMinerMinimumStake",
      "outputs": [],
      "stateMutability": "nonpayable",
      "type": "function"
    },
    {
      "inputs": [
        {
          "internalType": "uint256",
          "name": "_newRewardAmount",
          "type": "uint256"
        }
      ],
      "name": "setNewRewardInEpoch",
      "outputs": [],
      "stateMutability": "nonpayable",
      "type": "function"
    },
    {
      "inputs": [
        {
          "internalType": "uint40",
          "name": "_penaltyDuration",
          "type": "uint40"
        }
      ],
      "name": "setPenaltyDuration",
      "outputs": [],
      "stateMutability": "nonpayable",
      "type": "function"
    },
    {
      "inputs": [
        {
          "internalType": "uint40",
          "name": "_newUnstakeDelayTime",
          "type": "uint40"
        }
      ],
      "name": "setUnstakDelayTime",
      "outputs": [],
      "stateMutability": "nonpayable",
      "type": "function"
    },
    {
      "inputs": [
        {
          "internalType": "address",
          "name": "_workerHub",
          "type": "address"
        }
      ],
      "name": "setWorkerHubAddress",
      "outputs": [],
      "stateMutability": "nonpayable",
      "type": "function"
    },
    {
      "inputs": [
        {
          "internalType": "address",
          "name": "_miner",
          "type": "address"
        },
        {
          "internalType": "bool",
          "name": "_isFined",
          "type": "bool"
        }
      ],
      "name": "slashMiner",
      "outputs": [],
      "stateMutability": "nonpayable",
      "type": "function"
    },
    {
      "inputs": [
        {
          "internalType": "address",
          "name": "newOwner",
          "type": "address"
        }
      ],
      "name": "transferOwnership",
      "outputs": [],
      "stateMutability": "nonpayable",
      "type": "function"
    },
    {
      "inputs": [],
      "name": "treasury",
      "outputs": [
        {
          "internalType": "address",
          "name": "",
          "type": "address"
        }
      ],
      "stateMutability": "view",
      "type": "function"
    },
    {
      "inputs": [],
      "name": "unregisterMiner",
      "outputs": [],
      "stateMutability": "nonpayable",
      "type": "function"
    },
    {
      "inputs": [
        {
          "internalType": "address",
          "name": "_model",
          "type": "address"
        }
      ],
      "name": "unregisterModel",
      "outputs": [],
      "stateMutability": "nonpayable",
      "type": "function"
    },
    {
      "inputs": [],
      "name": "unstakeDelayTime",
      "outputs": [
        {
          "internalType": "uint40",
          "name": "",
          "type": "uint40"
        }
      ],
      "stateMutability": "view",
      "type": "function"
    },
    {
      "inputs": [],
      "name": "unstakeForMiner",
      "outputs": [],
      "stateMutability": "nonpayable",
      "type": "function"
    },
    {
      "inputs": [],
      "name": "updateEpoch",
      "outputs": [],
      "stateMutability": "nonpayable",
      "type": "function"
    },
    {
      "inputs": [
        {
          "internalType": "address",
          "name": "_model",
          "type": "address"
        },
        {
          "internalType": "uint256",
          "name": "_minimumFee",
          "type": "uint256"
        }
      ],
      "name": "updateModelMinimumFee",
      "outputs": [],
      "stateMutability": "nonpayable",
      "type": "function"
    },
    {
      "inputs": [
        {
          "internalType": "address",
          "name": "_model",
          "type": "address"
        },
        {
          "internalType": "uint32",
          "name": "_tier",
          "type": "uint32"
        }
      ],
      "name": "updateModelTier",
      "outputs": [],
      "stateMutability": "nonpayable",
      "type": "function"
    },
    {
      "inputs": [
        {
          "internalType": "address",
          "name": "_miner",
          "type": "address"
        }
      ],
      "name": "validateModelOfMiner",
      "outputs": [],
      "stateMutability": "view",
      "type": "function"
    },
    {
      "inputs": [],
      "name": "wEAI",
      "outputs": [
        {
          "internalType": "address",
          "name": "",
          "type": "address"
        }
      ],
      "stateMutability": "view",
      "type": "function"
    },
    {
      "stateMutability": "payable",
      "type": "receive"
    }
  ],
  "bytecode": "0x6080806040523461001657614481908161001c8239f35b600080fdfe60406080815260049081361015610020575b5050361561001e57600080fd5b005b600091823560e01c8063034438b014612f385780630716187f14612ef45780630738a9bb14612de75780630dc7df5314612d94578063191a54d814612d215780631a8ef58414612a8c5780631fdadcb7146128c35780632a1a8ca8146128865780633304f45614612849578063339d0f781461265d57806334875ec3146125ee578063351b2b331461250e57806336f4fb0214612459578063431a44571461239a57806347253baa146122e95780634fb9bc1e146120f857806354917f83146120865780635aa1326c1461203f5780635c975abb14611ffd57806361d027b314611faa57806361ea0a2514611c6f578063648ec7b914611bce578063652ff15914611b67578063656a1b2014611841578063674a63b9146117fd578063715018a61461175f57806373df250d1461165f578063741727951461161b57806376671808146115d4578063806b984f1461159757806384449a9d1461155a578063885b050f1461149a5780638da5cb5b146114475780639280f078146111e5578063969ceab4146110c75780639ae49cd314611004578063a8d6d3d114610dbe578063a9b3f8b714610d73578063af5e3be014610cfa578063afc1fce714610c98578063b1d1a56b14610bb3578063b74cd19414610adb578063cd23ea1414610a3c578063d279c191146108de578063d2d89be8146108a1578063d8f0166c146107fb578063db2dab1d146105c1578063e32bd90c14610548578063e4fefd6514610504578063e69d5b98146104bc578063e8d6f2f114610469578063f068205414610428578063f2fde38b1461033b5763f6a6ae1d1461027f5750610011565b346103375760207ffffffffffffffffffffffffffffffffffffffffffffffffffffffffffffffffc3601126103375773ffffffffffffffffffffffffffffffffffffffff6102cb612fe1565b6102d36135dc565b6102db61365b565b169182156103115750507fffffffffffffffffffffffff0000000000000000000000000000000000000000601354161760135580f35b517fec08c5b9000000000000000000000000000000000000000000000000000000008152fd5b8280fd5b50346103375760207ffffffffffffffffffffffffffffffffffffffffffffffffffffffffffffffffc36011261033757610373612fe1565b9161037c6135dc565b73ffffffffffffffffffffffffffffffffffffffff8316156103a557836103a284613e3d565b80f35b90602060849251917f08c379a0000000000000000000000000000000000000000000000000000000008352820152602660248201527f4f776e61626c653a206e6577206f776e657220697320746865207a65726f206160448201527f64647265737300000000000000000000000000000000000000000000000000006064820152fd5b50503461046557817ffffffffffffffffffffffffffffffffffffffffffffffffffffffffffffffffc36011261046557602090600d549051908152f35b5080fd5b50503461046557817ffffffffffffffffffffffffffffffffffffffffffffffffffffffffffffffffc360112610465576104b8906104a561320e565b905191829160208352602083019061302e565b0390f35b8382346104655760207ffffffffffffffffffffffffffffffffffffffffffffffffffffffffffffffffc360112610465576104f56135dc565b6104fd61365b565b35600b5580f35b50503461046557817ffffffffffffffffffffffffffffffffffffffffffffffffffffffffffffffffc3601126104655760209064ffffffffff600c54169051908152f35b50346103375760207ffffffffffffffffffffffffffffffffffffffffffffffffffffffffffffffffc360112610337577f3d731857045dfa7982ed8ff308eeda54c7e156ba99609db02c50b4485f64c4639035916105a46135dc565b6105ac61365b565b600f548151908152836020820152a1600f5580f35b509190346104655760207ffffffffffffffffffffffffffffffffffffffffffffffffffffffffffffffffc360112610465576105fb612fe1565b906106046135dc565b61060c61365b565b73ffffffffffffffffffffffffffffffffffffffff809216918284526002602052600182852001805463ffffffff8116156107d3577fffffffffffffffffffffffffffffffffffffffffffffffffffffffff0000000016905582845260066020528184205480156107a4577fffffffffffffffffffffffffffffffffffffffffffffffffffffffffffffffff916106f56106f06106ac85600554016130b1565b9190549186860192856106be856130b1565b92909360031b1c169073ffffffffffffffffffffffffffffffffffffffff8084549260031b9316831b921b1916179055565b6130b1565b90549060031b1c16855260066020528285205560055480156107785784929101610743610721826130b1565b73ffffffffffffffffffffffffffffffffffffffff82549160031b1b19169055565b60055582825260066020528120557f68180f49300b9177ab3b88d3f909a002abeb9c2f769543a93234ca68333582d78280a280f35b6024856031887f4e487b7100000000000000000000000000000000000000000000000000000000835252fd5b602486858551917f28a32c19000000000000000000000000000000000000000000000000000000008352820152fd5b8684517faba47339000000000000000000000000000000000000000000000000000000008152fd5b5090346103375760207ffffffffffffffffffffffffffffffffffffffffffffffffffffffffffffffffc3601126103375773ffffffffffffffffffffffffffffffffffffffff8061084a612fe1565b169081855260036020526002838620015416845282602052600182852001908452602052808320541561087b578280f35b517fa7c1cb49000000000000000000000000000000000000000000000000000000008152fd5b50503461046557817ffffffffffffffffffffffffffffffffffffffffffffffffffffffffffffffffc360112610465576020906007549051908152f35b5050346104655760207ffffffffffffffffffffffffffffffffffffffffffffffffffffffffffffffffc36011261046557610917612fe1565b90610920613dcd565b6109286137e1565b610931826132f0565b9064ffffffffff600c5460701c169273ffffffffffffffffffffffffffffffffffffffff6109b4818316958688526003602052600285892001907fffffffffffffff0000000000ffffffffffffffffffffffffffffffffffffffff78ffffffffff000000000000000000000000000000000000000083549260a01b169116179055565b8315158080610a34575b15610a13575091610a04847f75690555e75b04e280e646889defdcbefd8401507e5394d1173fd84290944c299593602095888a5260108752898581205560125416613eaa565b51908152a25b60016101105580f35b929394505050610a25575b5050610a0a565b60106020528220553880610a1e565b5060016109be565b5050346104655760207ffffffffffffffffffffffffffffffffffffffffffffffffffffffffffffffffc36011261046557809173ffffffffffffffffffffffffffffffffffffffff610a8c612fe1565b8260208551610a9a81613166565b828152015216815260026020522060018251610ab581613166565b602083549384835263ffffffff9384910154169101908152835192835251166020820152f35b50903461033757807ffffffffffffffffffffffffffffffffffffffffffffffffffffffffffffffffc36011261033757610b13612fe1565b9073ffffffffffffffffffffffffffffffffffffffff60243592610b356135dc565b610b3d61365b565b169283855260026020528185209063ffffffff60018301541615610b8c575091602091817f923b5fe9c9974b3c93e434ae744faaa60ec86513c02614da5c8d9c51eda2bdd7945551908152a280f35b82517f13aa293e000000000000000000000000000000000000000000000000000000008152fd5b5090346103375760207ffffffffffffffffffffffffffffffffffffffffffffffffffffffffffffffffc36011261033757813591610bef6137e1565b610bf761365b565b338452600360205281842090600282015460f01c15610c715750610c1c838254613294565b9055610c448273ffffffffffffffffffffffffffffffffffffffff60125416309033906139b9565b519081527f3d236e8f743e932a32c84d3114ce3e7ee0b75225cb3b39f72faac62495fd21c160203392a280f35b82517faba47339000000000000000000000000000000000000000000000000000000008152fd5b5050346104655760207ffffffffffffffffffffffffffffffffffffffffffffffffffffffffffffffffc360112610465578060209273ffffffffffffffffffffffffffffffffffffffff610cea612fe1565b1681526002845220549051908152f35b50346103375760207ffffffffffffffffffffffffffffffffffffffffffffffffffffffffffffffffc360112610337577f37bba2c63397e7d89baa40e3d0c29e309913eb87b9691bacb16dba509fad523c903591610d566135dc565b610d5e61365b565b6014548151908152836020820152a160145580f35b5050346104655760207ffffffffffffffffffffffffffffffffffffffffffffffffffffffffffffffffc36011261046557602090610db7610db2612fe1565b613475565b9051908152f35b50346103375760607ffffffffffffffffffffffffffffffffffffffffffffffffffffffffffffffffc36011261033757610df6612fe1565b6024359261ffff84168094036110005760443591610e126135dc565b610e1a61365b565b73ffffffffffffffffffffffffffffffffffffffff8116938415610b8c576014548410610fd9578515610fb2578487526002602052828720600181019081549063ffffffff8216610f8a578690557fffffffffffffffffffffffffffffffffffffffffffffffffffffffff000000001687179055848752600660205282872054610f5b576005549068010000000000000000821015610f2f575091610f197f7041913a4cb21c28c931da9d9e4b5ed0ad84e47fcf2a65527f03c438d534ed5c9492610eed856001602097016005556130b1565b90919073ffffffffffffffffffffffffffffffffffffffff8084549260031b9316831b921b1916179055565b600554858852600684528188205551908152a380f35b8760416024927f4e487b7100000000000000000000000000000000000000000000000000000000835252fd5b602490858451917f05e3de8f000000000000000000000000000000000000000000000000000000008352820152fd5b8386517f3a81d6fc000000000000000000000000000000000000000000000000000000008152fd5b82517fe1423617000000000000000000000000000000000000000000000000000000008152fd5b82517f732f9413000000000000000000000000000000000000000000000000000000008152fd5b8480fd5b8284346110c457807ffffffffffffffffffffffffffffffffffffffffffffffffffffffffffffffffc3601126110c4578151918291600554808552602080950194600583527f036b6384b5eca791c62761152d0c79bb0604c104a5fb6f4eb0703f3154bb3db092905b828210611097576104b88686611085828b03836131cd565b5191829160208352602083019061302e565b835473ffffffffffffffffffffffffffffffffffffffff168752958601956001938401939091019061106d565b80fd5b5091903461046557807ffffffffffffffffffffffffffffffffffffffffffffffffffffffffffffffffc36011261046557611100612fe1565b6024359182151583036111e15773ffffffffffffffffffffffffffffffffffffffff8060ac5416331480156111d4575b156111775761113d61365b565b82161561114f5750906103a291613fb6565b8490517fa7c1cb49000000000000000000000000000000000000000000000000000000008152fd5b60648660208451917f08c379a0000000000000000000000000000000000000000000000000000000008352820152601760248201527f4f6e6c79204f776e6572206f7220576f726b65724875620000000000000000006044820152fd5b5080601354163314611130565b8380fd5b50503461046557817ffffffffffffffffffffffffffffffffffffffffffffffffffffffffffffffffc3601126104655761121d61320e565b9180805b84518110156112975773ffffffffffffffffffffffffffffffffffffffff611249828761341c565b5116825260206009815284832064ffffffffff600187519261126a84613166565b805484520154169182910152611283575b600101611221565b9161128f600191613430565b92905061127b565b50906112a28161345d565b916112af845193846131cd565b8183526112bb8261345d565b946020957fffffffffffffffffffffffffffffffffffffffffffffffffffffffffffffffe080910136888701376113096112f48561345d565b94611301885196876131cd565b80865261345d565b0186835b828110611426575050508192825b82518110156113c25773ffffffffffffffffffffffffffffffffffffffff80611344838661341c565b51168552600989528785209064ffffffffff60018a519361136485613166565b80548552015416808b84015261137f575b505060010161131b565b956113ba9160019397611392838861341c565b511661139e838b61341c565b526113a9828661341c565b526113b4818561341c565b50613430565b949038611375565b86518781528083868a8c6113d88583018d61302e565b9185830382870152818086519485815201950193905b8382106113fb5786860387f35b84518051875283015164ffffffffff16868401528796509485019493820193600191909101906113ee565b8190885161143381613166565b86815286838201528282890101520161130d565b50503461046557817ffffffffffffffffffffffffffffffffffffffffffffffffffffffffffffffffc3601126104655760209073ffffffffffffffffffffffffffffffffffffffff60ac54169051908152f35b5050346104655760207ffffffffffffffffffffffffffffffffffffffffffffffffffffffffffffffffc360112610465577fffffffffffffffffffffffffffffffffffffffffffff0000000000ffffffffff69ffffffffff00000000006114ff61301a565b6115076135dc565b61150f61365b565b7ff7a437a25c636d2b29d0ba34f0f6870af14f44478eff2ac852f36030f2e2924e600c549464ffffffffff815190808860281c16825284166020820152a160281b16911617600c5580f35b50503461046557817ffffffffffffffffffffffffffffffffffffffffffffffffffffffffffffffffc36011261046557602090600f549051908152f35b50503461046557817ffffffffffffffffffffffffffffffffffffffffffffffffffffffffffffffffc36011261046557602090600e549051908152f35b50503461046557817ffffffffffffffffffffffffffffffffffffffffffffffffffffffffffffffffc3601126104655760209064ffffffffff600c5460701c169051908152f35b50503461046557817ffffffffffffffffffffffffffffffffffffffffffffffffffffffffffffffffc3601126104655760209061ffff600c5460501c169051908152f35b50903461033757827ffffffffffffffffffffffffffffffffffffffffffffffffffffffffffffffffc3601126103375761169761365b565b338352600960205280832064ffffffffff600182015416431061173857805492831561171157508390556116e4823373ffffffffffffffffffffffffffffffffffffffff60125416613eaa565b519081527f1051154647682075e7cc0645853209e75208cb5acd862fc83f7fd0fcaa9624b460203392a280f35b82517f15da940f000000000000000000000000000000000000000000000000000000008152fd5b50517fb3c383a1000000000000000000000000000000000000000000000000000000008152fd5b83346110c457807ffffffffffffffffffffffffffffffffffffffffffffffffffffffffffffffffc3601126110c4576117966135dc565b8073ffffffffffffffffffffffffffffffffffffffff60ac547fffffffffffffffffffffffff0000000000000000000000000000000000000000811660ac55167f8be0079c531659141344cd1fd0a4f28419497f9722a3daafe3b4186f6b6457e08280a380f35b5050346104655760207ffffffffffffffffffffffffffffffffffffffffffffffffffffffffffffffffc36011261046557602090610db761183c612fe1565b6132f0565b50903461033757827ffffffffffffffffffffffffffffffffffffffffffffffffffffffffffffffffc36011261033757611879613dcd565b6118816137e1565b61188961365b565b3383526020916003835281842090600282019081548060f01c15611b3f5791600193917dffffffffffffffffffffffffffffffffffffffffffffffffffffffffffff61194494168255878584549482815501556119063373ffffffffffffffffffffffffffffffffffffffff166000526008602052604060002090565b546119d5575b507fffffffffffffffffffffffff00000000000000000000000000000000000000008154169055338652600985528386205490613294565b64ffffffffff9260098461195c81600c541643613294565b169582519361196a85613166565b845280840196875233885252852090518155019151167fffffffffffffffffffffffffffffffffffffffffffffffffffffff0000000000825416179055337f8f54596d72781f60dbf7dad7e576f06ce17bbda0bdf384463f7734f85f51498e8280a260016101105580f35b6119dd6137e1565b6119e6336132f0565b600c54338a5260038952878a2060020180547fffffffffffffff0000000000ffffffffffffffffffffffffffffffffffffffff1660309290921b78ffffffffff00000000000000000000000000000000000000001691909117905564ffffffffff908015158080611b38575b15611b1f5750338a52601089528988812055611a87813373ffffffffffffffffffffffffffffffffffffffff60125416613eaa565b87519081527f75690555e75b04e280e646889defdcbefd8401507e5394d1173fd84290944c29893392a25b33895260118852868920907fffffffffffffffffffffffffffffffff000000000000ffffffffff000000000082549142169116179055611af133613b19565b73ffffffffffffffffffffffffffffffffffffffff82541688528652611b1933868920613c2c565b3861190c565b611b2a575b50611ab2565b60108952878a205538611b24565b508a611a52565b5083517faba47339000000000000000000000000000000000000000000000000000000008152fd5b50346103375760207ffffffffffffffffffffffffffffffffffffffffffffffffffffffffffffffffc360112610337576080928291358152600a60205220908154916001810154916003600283015492015492815194855260208501528301526060820152f35b5050346104655760207ffffffffffffffffffffffffffffffffffffffffffffffffffffffffffffffffc3601126104655760c0918173ffffffffffffffffffffffffffffffffffffffff9182611c22612fe1565b168152600360205220805492600260018301549201549264ffffffffff9282519586526020860152831690840152808260a01c1660608401528160c81c16608083015260f01c60a0820152f35b509034610337576101007ffffffffffffffffffffffffffffffffffffffffffffffffffffffffffffffffc36011261033757611ca9612fe1565b906084359164ffffffffff93848416809403611fa65760a4359485168503611fa65760c43561ffff81168103611fa25760799586549560ff8760081c161594858096611f95575b8015611f7e575b15611efb5773ffffffffffffffffffffffffffffffffffffffff907fffffffffffffffffffffffffffffffffffffffffffffffffffffffffffffff00988760018b8316178c55611ecd575b50611d5c60ff8b5460081c16611d5781613d42565b613d42565b611d6533613e3d565b611d958a549960ff8b60081c1690611d7c82613d42565b611d8582613d42565b60de541660de55611d5781613d42565b60016101105516938415611ea657506c01000000000000000000000000929169ffffffffff00000000006bffff0000000000000000000092602435600b55604435600d55606435600f557fffffffffffffffffffffffffffffffffffff0000000000000000000000000000600c5460e43560145516179160281b16179160501b161717600c5543600e557fffffffffffffffffffffffff00000000000000000000000000000000000000006012541617601255611e50578380f35b7f7f26b83ff96e1f2b6a682f133852f6798a09c465da95921460cefb3847402498927fffffffffffffffffffffffffffffffffffffffffffffffffffffffffffff00ff6020931690555160018152a13880808380f35b86517fe6c4247b000000000000000000000000000000000000000000000000000000008152fd5b7fffffffffffffffffffffffffffffffffffffffffffffffffffffffffffff000016610101178a5538611d42565b60848560208951917f08c379a0000000000000000000000000000000000000000000000000000000008352820152602e60248201527f496e697469616c697a61626c653a20636f6e747261637420697320616c72656160448201527f647920696e697469616c697a65640000000000000000000000000000000000006064820152fd5b50303b158015611cf75750600160ff891614611cf7565b50600160ff891610611cf0565b8680fd5b8580fd5b50503461046557817ffffffffffffffffffffffffffffffffffffffffffffffffffffffffffffffffc3601126104655760209073ffffffffffffffffffffffffffffffffffffffff600154169051908152f35b50503461046557817ffffffffffffffffffffffffffffffffffffffffffffffffffffffffffffffffc3601126104655760209060ff60de541690519015158152f35b50503461046557817ffffffffffffffffffffffffffffffffffffffffffffffffffffffffffffffffc3601126104655760209064ffffffffff600c5460281c169051908152f35b5050346104655760207ffffffffffffffffffffffffffffffffffffffffffffffffffffffffffffffffc36011261046557809173ffffffffffffffffffffffffffffffffffffffff6120d6612fe1565b16815260026020522063ffffffff600182549201541682519182526020820152f35b50346103375760207ffffffffffffffffffffffffffffffffffffffffffffffffffffffffffffffffc36011261033757612130613009565b906121396137e1565b61214161365b565b33845260096020528284209182549283156122c15785905533855260036020526002848620612171858254613294565b81550191825460f01c1561221e575b505073ffffffffffffffffffffffffffffffffffffffff9081815416156121d2575b541691519081527f5f8a19f664e489b0ebcc62ec24b1bde029195fbb4af60118cecf0e16d6d95b2d60203392a380f35b816121ea6106f06121e1613912565b60055490613078565b90549060031b1c167fffffffffffffffffffffffff00000000000000000000000000000000000000008254161781556121a2565b61ffff80831680159182156122b0575b5050612289575081547dffffffffffffffffffffffffffffffffffffffffffffffffffffffffffff1660f09190911b7fffff000000000000000000000000000000000000000000000000000000000000161781553880612180565b84517fe1423617000000000000000000000000000000000000000000000000000000008152fd5b600c5460601c16109050388061222e565b8285517f7c946ed7000000000000000000000000000000000000000000000000000000008152fd5b50903461033757602090817ffffffffffffffffffffffffffffffffffffffffffffffffffffffffffffffffc3601126111e15773ffffffffffffffffffffffffffffffffffffffff928361233b612fe1565b16855282528084209381518094848754928381520196835284832092905b8282106123815786866104b887612372848d03856131cd565b5192828493845283019061302e565b8354811688529685019660019384019390910190612359565b5050346104655760207ffffffffffffffffffffffffffffffffffffffffffffffffffffffffffffffffc360112610465577fffffffffffffffffffffffffffffffffffffffff0000ffffffffffffffffffff6bffff00000000000000000000612401613009565b6124096135dc565b61241161365b565b7fcf2ba21ec685fb1baf4b5e5df96fd2da47ab299e7d95e586c7898f114b6c1269600c549461ffff815190808860501c16825284166020820152a160501b16911617600c5580f35b50903461033757827ffffffffffffffffffffffffffffffffffffffffffffffffffffffffffffffffc3601126103375773ffffffffffffffffffffffffffffffffffffffff6013541633036124b157826103a261365b565b90602060649251917f08c379a0000000000000000000000000000000000000000000000000000000008352820152600e60248201527f4f6e6c7920576f726b65724875620000000000000000000000000000000000006044820152fd5b5090346103375760207ffffffffffffffffffffffffffffffffffffffffffffffffffffffffffffffffc3601126103375761254761301a565b906125506135dc565b61255861365b565b64ffffffffff8092169283156125c75750907fdf63c46e5024e57c66aafc6698e317c78589c870dca694678c89dd379c5fd4907fffffffffffffffffffffffffffffffffffffffffffffffffffffff000000000092600c549281519084168152856020820152a11617600c5580f35b90517faa7feadc000000000000000000000000000000000000000000000000000000008152fd5b5050346104655760207ffffffffffffffffffffffffffffffffffffffffffffffffffffffffffffffffc3601126104655760209061265361262d612fe1565b73ffffffffffffffffffffffffffffffffffffffff166000526008602052604060002090565b5415159051908152f35b5091903461046557807ffffffffffffffffffffffffffffffffffffffffffffffffffffffffffffffffc36011261046557612696612fe1565b906024359173ffffffffffffffffffffffffffffffffffffffff92838116809103611000576126c36135dc565b6126cb61365b565b8085526020916002835263ffffffff600185882001541615612821576127118173ffffffffffffffffffffffffffffffffffffffff166000526008602052604060002090565b54156107d357848116948587526003845260028588200154168281146127f95791612760600295949288996003956103a29a5280855261275382888d20613c2c565b838b528452858a2061384b565b8588528282528484892001817fffffffffffffffffffffffff0000000000000000000000000000000000000000825416179055875283815261ffff600184892001541694875252842001907dffffffffffffffffffffffffffffffffffffffffffffffffffffffffffff7fffff00000000000000000000000000000000000000000000000000000000000083549260f01b169116179055565b8785517f77a9a35d000000000000000000000000000000000000000000000000000000008152fd5b8684517f13aa293e000000000000000000000000000000000000000000000000000000008152fd5b50503461046557817ffffffffffffffffffffffffffffffffffffffffffffffffffffffffffffffffc36011261046557602090600b549051908152f35b50503461046557817ffffffffffffffffffffffffffffffffffffffffffffffffffffffffffffffffc360112610465576020906014549051908152f35b5090346103375760207ffffffffffffffffffffffffffffffffffffffffffffffffffffffffffffffffc360112610337576128fc613009565b916129056137e1565b61290d61365b565b61ffff92838116938415908115612a7b575b50612a535733855260036020528285206002810192835460f01c612a2c5750600b54905581547dffffffffffffffffffffffffffffffffffffffffffffffffffffffffffff1660f09190911b7fffff000000000000000000000000000000000000000000000000000000000000161781556129fb906129a26106f06121e1613912565b919073ffffffffffffffffffffffffffffffffffffffff928391549060031b1c167fffffffffffffffffffffffff000000000000000000000000000000000000000082541617905560125416600b5490309033906139b9565b600b5490519081527f55e488821080f3f5cdf6088b02793df0d26f40053a70b6154347d2ac313015a160203392a380f35b84517f3a81d6fc000000000000000000000000000000000000000000000000000000008152fd5b5090517fe1423617000000000000000000000000000000000000000000000000000000008152fd5b9050600c5460601c1684113861291f565b50903461033757827ffffffffffffffffffffffffffffffffffffffffffffffffffffffffffffffffc36011261033757612ac46137e1565b612acc61365b565b33835260036020528083209160028301908154938460f01c15612cf95754600b5411612cd25764ffffffffff93848160c81c164210612caa5773ffffffffffffffffffffffffffffffffffffffff16855280602052612b2d3384872061384b565b338552600860205282852054612c7a576007549068010000000000000000821015612c4e575090612b95612b6a836001612bf59501600755613117565b339073ffffffffffffffffffffffffffffffffffffffff8084549260031b9316831b921b1916179055565b60075433865260086020528386205583600c5460701c167fffffffffffffff0000000000ffffffffffffffffffffffffffffffffffffffff78ffffffffff000000000000000000000000000000000000000083549260a01b169116179055565b601160205282209042167fffffffffffffffffffffffffffffffffffffffffffffffffffffff0000000000825416179055337fb7041987154996ed34981c2bc6fbafd4b1fcab9964486d7cc386f0d8abcc54468280a280f35b8560416024927f4e487b7100000000000000000000000000000000000000000000000000000000835252fd5b6024908351907f05e3de8f0000000000000000000000000000000000000000000000000000000082523390820152fd5b5082517ff7bc3778000000000000000000000000000000000000000000000000000000008152fd5b82517f1cc3b37b000000000000000000000000000000000000000000000000000000008152fd5b5082517faba47339000000000000000000000000000000000000000000000000000000008152fd5b5050346104655760207ffffffffffffffffffffffffffffffffffffffffffffffffffffffffffffffffc36011261046557809173ffffffffffffffffffffffffffffffffffffffff612d71612fe1565b16815260096020522064ffffffffff600182549201541682519182526020820152f35b50503461046557817ffffffffffffffffffffffffffffffffffffffffffffffffffffffffffffffffc3601126104655760209073ffffffffffffffffffffffffffffffffffffffff601254169051908152f35b503461033757817ffffffffffffffffffffffffffffffffffffffffffffffffffffffffffffffffc36011261033757612e1e612fe1565b916024359163ffffffff93848416809403611fa657612e3b6135dc565b612e4361365b565b8315612a535773ffffffffffffffffffffffffffffffffffffffff1693848652600260205260018387200191825491821615612ecd57507fffffffffffffffffffffffffffffffffffffffffffffffffffffffff000000001683179055519081527f64905396482bb1067a551077143915c77b512b1cfea5db34c903943c1c2a5a1590602090a280f35b83517f13aa293e000000000000000000000000000000000000000000000000000000008152fd5b50503461046557817ffffffffffffffffffffffffffffffffffffffffffffffffffffffffffffffffc3601126104655760209061ffff600c5460601c169051908152f35b5090346103375760207ffffffffffffffffffffffffffffffffffffffffffffffffffffffffffffffffc36011261033757813591612f746135dc565b612f7c61365b565b8215612fba57507f3179ee2c3011a36d6d80a4b422f208df28ef9493d1d9ce1555b3116bd26ddb3d90600d548151908152836020820152a1600d5580f35b90517f1342eb4b000000000000000000000000000000000000000000000000000000008152fd5b6004359073ffffffffffffffffffffffffffffffffffffffff8216820361300457565b600080fd5b6004359061ffff8216820361300457565b6004359064ffffffffff8216820361300457565b90815180825260208080930193019160005b82811061304e575050505090565b835173ffffffffffffffffffffffffffffffffffffffff1685529381019392810192600101613040565b8115613082570690565b7f4e487b7100000000000000000000000000000000000000000000000000000000600052601260045260246000fd5b6005548110156130e85760056000527f036b6384b5eca791c62761152d0c79bb0604c104a5fb6f4eb0703f3154bb3db00190600090565b7f4e487b7100000000000000000000000000000000000000000000000000000000600052603260045260246000fd5b6007548110156130e85760076000527fa66cc928b5edb82af9bd49922954155ab7b0942694bea4ce44661d9a8736c6880190600090565b80548210156130e85760005260206000200190600090565b6040810190811067ffffffffffffffff82111761318257604052565b7f4e487b7100000000000000000000000000000000000000000000000000000000600052604160045260246000fd5b6080810190811067ffffffffffffffff82111761318257604052565b90601f7fffffffffffffffffffffffffffffffffffffffffffffffffffffffffffffffe0910116810190811067ffffffffffffffff82111761318257604052565b6040519060075480835282602091602082019060076000527fa66cc928b5edb82af9bd49922954155ab7b0942694bea4ce44661d9a8736c688936000905b82821061326457505050613262925003836131cd565b565b855473ffffffffffffffffffffffffffffffffffffffff168452600195860195889550938101939091019061324c565b919082018092116132a157565b7f4e487b7100000000000000000000000000000000000000000000000000000000600052601160045260246000fd5b818102929181159184041417156132a157565b919082039182116132a157565b613377906132fc61365b565b600064ffffffffff9081600c5460701c16906133388473ffffffffffffffffffffffffffffffffffffffff166000526008602052604060002090565b541580156133e8575b1561337a5750505073ffffffffffffffffffffffffffffffffffffffff6000915b16600052601060205260406000205490613294565b90565b6133d2612710926133cd73ffffffffffffffffffffffffffffffffffffffff95600260406133e196898b168152600360205220015460a01c1662f099c06133c6600f54600d54906132d0565b04926132e3565b6132d0565b6133db85613475565b906132d0565b0491613362565b5073ffffffffffffffffffffffffffffffffffffffff84168152600360205282600260408320015460a01c16821115613341565b80518210156130e85760209160051b010190565b7fffffffffffffffffffffffffffffffffffffffffffffffffffffffffffffffff81146132a15760010190565b67ffffffffffffffff81116131825760051b60200190565b6134fd62278d009160006134a98273ffffffffffffffffffffffffffffffffffffffff166000526008602052604060002090565b541515806135ab575b1561352e575073ffffffffffffffffffffffffffffffffffffffff636648cc0b915b1660005260116020526134f865ffffffffffff60406000205460501c164290613294565b6132e3565b04600c81106135295750600c5b6101f490808202918204036132a1576127109081018091116132a15790565b61350a565b6135588273ffffffffffffffffffffffffffffffffffffffff166000526008602052604060002090565b5461357a575073ffffffffffffffffffffffffffffffffffffffff42916134d4565b64ffffffffff604073ffffffffffffffffffffffffffffffffffffffff9283851681526011602052205416916134d4565b5073ffffffffffffffffffffffffffffffffffffffff82168152601160205264ffffffffff604082205416156134b2565b73ffffffffffffffffffffffffffffffffffffffff60ac541633036135fd57565b60646040517f08c379a000000000000000000000000000000000000000000000000000000000815260206004820152602060248201527f4f776e61626c653a2063616c6c6572206973206e6f7420746865206f776e65726044820152fd5b600d54156137db57600e5461367081436132e3565b90600d5491821561308257829004918261368a575b505050565b91906136a09061369a83856132d0565b90613294565b600e558062f099c06136be600f54946133cd600796600754906132d0565b04915b1561368557825464ffffffffff90600c9182549160709180600094841c168452600a60205260409160038386200155808554841c1684528660018093862001558454938185851c169182146137ae57509172ffffffffff0000000000000000000000000000917fffffffffffffffffffffffffff0000000000ffffffffffffffffffffffffffff9301901b1691161790558015613780577fffffffffffffffffffffffffffffffffffffffffffffffffffffffffffffffff01806136c1565b602460007f4e487b710000000000000000000000000000000000000000000000000000000081526011600452fd5b807f4e487b7100000000000000000000000000000000000000000000000000000000602492526011600452fd5b43600e55565b60ff60de54166137ed57565b60646040517f08c379a000000000000000000000000000000000000000000000000000000000815260206004820152601060248201527f5061757361626c653a20706175736564000000000000000000000000000000006044820152fd5b919091600181019073ffffffffffffffffffffffffffffffffffffffff8416916000918383528160205260408320546138e1578054680100000000000000008110156138b4576040949596610eed8260016138a9940185558461314e565b549382526020522055565b6024847f4e487b710000000000000000000000000000000000000000000000000000000081526041600452fd5b602484604051907f05e3de8f0000000000000000000000000000000000000000000000000000000082526004820152fd5b600054604051602081019182524260408201524340606082015260608152613939816131b1565b5190208060005590565b3d1561399c573d9067ffffffffffffffff8211613182576040519161399060207fffffffffffffffffffffffffffffffffffffffffffffffffffffffffffffffe0601f84011601846131cd565b82523d6000602084013e565b606090565b90816020910312613004575180151581036130045790565b60408051909467ffffffffffffffff9493916060810186811182821017613182577fffffffff000000000000000000000000000000000000000000000000000000009160259189528181527f74323536290000000000000000000000000000000000000000000000000000008960208301927f7472616e7366657246726f6d28616464726573732c616464726573732c75696e845201522016918651946020860193845273ffffffffffffffffffffffffffffffffffffffff809216602487015216604485015260648401526064835260a0830193838510908511176131825760008094938194875251925af1613aae613943565b9015908115613ae9575b50613ac05750565b600490517fbfa871c5000000000000000000000000000000000000000000000000000000008152fd5b8051801515925082613afe575b505038613ab8565b613b1192506020809183010191016139a1565b153880613af6565b73ffffffffffffffffffffffffffffffffffffffff809116600091818352600860205260408320548015613bfb577fffffffffffffffffffffffffffffffffffffffffffffffffffffffffffffffff91613b93613b8e613b7c8560075401613117565b9190549186860192856106be85613117565b613117565b90549060031b1c168452600860205260408420556007548015613bce5701613bbd61072182613117565b600755815260086020526040812055565b6024847f4e487b710000000000000000000000000000000000000000000000000000000081526031600452fd5b602483604051907f28a32c190000000000000000000000000000000000000000000000000000000082526004820152fd5b600181019073ffffffffffffffffffffffffffffffffffffffff809316906000938285528360205260408520548015613d11577fffffffffffffffffffffffffffffffffffffffffffffffffffffffffffffffff91613cad613ca7613c94858754018761314e565b9190549186860192856106be858b61314e565b8561314e565b90549060031b1c16865284602052604086205581548015613ce4570190613cd7610721838361314e565b5582526020526040812055565b6024867f4e487b710000000000000000000000000000000000000000000000000000000081526031600452fd5b602484604051907f28a32c190000000000000000000000000000000000000000000000000000000082526004820152fd5b15613d4957565b60846040517f08c379a000000000000000000000000000000000000000000000000000000000815260206004820152602b60248201527f496e697469616c697a61626c653a20636f6e7472616374206973206e6f74206960448201527f6e697469616c697a696e670000000000000000000000000000000000000000006064820152fd5b6101106002815414613ddf5760029055565b60646040517f08c379a000000000000000000000000000000000000000000000000000000000815260206004820152601f60248201527f5265656e7472616e637947756172643a207265656e7472616e742063616c6c006044820152fd5b60ac549073ffffffffffffffffffffffffffffffffffffffff80911691827fffffffffffffffffffffffff000000000000000000000000000000000000000082161760ac55167f8be0079c531659141344cd1fd0a4f28419497f9722a3daafe3b4186f6b6457e0600080a3565b600092918380937f7472616e7366657228616464726573732c75696e7432353629000000000000006020604051613ee081613166565b6019815201526040519073ffffffffffffffffffffffffffffffffffffffff60208301947fa9059cbb000000000000000000000000000000000000000000000000000000008652166024830152604482015260448152613f3f816131b1565b51925af1613f4b613943565b9015908115613f86575b50613f5c57565b60046040517fbfa871c5000000000000000000000000000000000000000000000000000000008152fd5b8051801515925082613f9b575b505038613f55565b613fae92506020809183010191016139a1565b153880613f93565b73ffffffffffffffffffffffffffffffffffffffff81811660008181526003602090815260408083206008835281842090979495929491939290541561442257613ffe6137e1565b614007876132f0565b600c548785526003875285852060020180547fffffffffffffff0000000000ffffffffffffffffffffffffffffffffffffffff1660309290921b78ffffffffff00000000000000000000000000000000000000001691909117905564ffffffffff93908787821515808061441b575b156143ff575081927f75690555e75b04e280e646889defdcbefd8401507e5394d1173fd84290944c299285526010825284898120556140ba818d8860125416613eaa565b8851908152a25b65ffffffffffff8782526011908188528580888520541680156000146143fa5750636648cc0b5b16814216038181116143ce57898452828952878420918083549216818360501c16019081116143a257906fffffffffffff000000000000000000009392917fffffffffffffffffffffffffffffffff000000000000ffffffffffffffffffff94859160501b1691161790558883528088528683208642167fffffffffffffffffffffffffffffffffffffffffffffffffffffff000000000082541617905560028b0194848654169a8b855260048a526001898620018b86528a5288852054614380575b506141bd87600c5460281c1642613294565b7fffff0000000000ffffffffffffffffffffffffffffffffffffffffffffffffff7dffffffffff0000000000000000000000000000000000000000000000000088549260c81b16911617865561424357505050507f9335a7723b09748526d22902742e96812ad183ab52d86c2030fe407ff626e50d949596505460c81c169051908152a3565b909160049796939550809450612710614268600b5461ffff600c5460501c16906132d0565b049a8b815481811060001461436e575050555b87845285528183209081541690558383601354168251968780927fe00246040000000000000000000000000000000000000000000000000000000082525afa918215614363578092614304575b507f63a49f9cdfcfe1fddc8bd7a881449dc97b664e888be5c2fdee7ca4a70b447e4394506142fb88838560125416613eaa565b519687521694a4565b91509192938481813d831161435c575b61431e81836131cd565b8101031261046557519083821682036110c457507f63a49f9cdfcfe1fddc8bd7a881449dc97b664e888be5c2fdee7ca4a70b447e43939291386142c8565b503d614314565b9051903d90823e3d90fd5b6143799293506132e3565b905561427b565b61439c908c865260048b52614397818b8820613c2c565b613b19565b386141ab565b602485857f4e487b71000000000000000000000000000000000000000000000000000000008252600452fd5b602484847f4e487b71000000000000000000000000000000000000000000000000000000008252600452fd5b6140e8565b91505061440d575b506140c1565b601087528582205538614407565b5084614076565b600484517fa7c1cb49000000000000000000000000000000000000000000000000000000008152fdfea2646970667358221220f76fcb4c2ec3eba1fb0afe8ca038667560c1da8922836d402c139f25d4274a4b64736f6c63430008160033",
  "linkReferences": {},
  "deployedLinkReferences": {}
}