{
  "_format": "hh-sol-artifact-1",
  "contractName": "HybridModel",
  "sourceName": "contracts/HybridModel.sol",
  "abi": [
    {
      "inputs": [],
      "name": "ModelIdAlreadySet",
      "type": "error"
    },
    {
      "anonymous": false,
      "inputs": [
        {
          "indexed": false,
          "internalType": "uint256",
          "name": "newValue",
          "type": "uint256"
        }
      ],
      "name": "IdentifierUpdate",
      "type": "event"
    },
    {
      "anonymous": false,
      "inputs": [
        {
          "indexed": false,
          "internalType": "uint8",
          "name": "version",
          "type": "uint8"
        }
      ],
      "name": "Initialized",
      "type": "event"
    },
    {
      "anonymous": false,
      "inputs": [
        {
          "indexed": false,
          "internalType": "string",
          "name": "newValue",
          "type": "string"
        }
      ],
      "name": "MetadataUpdate",
      "type": "event"
    },
    {
      "anonymous": false,
      "inputs": [
        {
          "indexed": false,
          "internalType": "string",
          "name": "newValue",
          "type": "string"
        }
      ],
      "name": "NameUpdate",
      "type": "event"
    },
    {
      "anonymous": false,
      "inputs": [
        {
          "indexed": true,
          "internalType": "address",
          "name": "previousOwner",
          "type": "address"
        },
        {
          "indexed": true,
          "internalType": "address",
          "name": "newOwner",
          "type": "address"
        }
      ],
      "name": "OwnershipTransferred",
      "type": "event"
    },
    {
      "anonymous": false,
      "inputs": [
        {
          "indexed": false,
          "internalType": "address",
          "name": "account",
          "type": "address"
        }
      ],
      "name": "Paused",
      "type": "event"
    },
    {
      "anonymous": false,
      "inputs": [
        {
          "indexed": false,
          "internalType": "address",
          "name": "account",
          "type": "address"
        }
      ],
      "name": "Unpaused",
      "type": "event"
    },
    {
      "anonymous": false,
      "inputs": [
        {
          "indexed": false,
          "internalType": "address",
          "name": "newAddress",
          "type": "address"
        }
      ],
      "name": "WorkerHubUpdate",
      "type": "event"
    },
    {
      "inputs": [],
      "name": "identifier",
      "outputs": [
        {
          "internalType": "uint256",
          "name": "",
          "type": "uint256"
        }
      ],
      "stateMutability": "view",
      "type": "function"
    },
    {
      "inputs": [
        {
          "internalType": "bytes",
          "name": "_input",
          "type": "bytes"
        },
        {
          "internalType": "bool",
          "name": "_rawFlag",
          "type": "bool"
        }
      ],
      "name": "infer",
      "outputs": [
        {
          "internalType": "uint256",
          "name": "",
          "type": "uint256"
        }
      ],
      "stateMutability": "payable",
      "type": "function"
    },
    {
      "inputs": [
        {
          "internalType": "bytes",
          "name": "_input",
          "type": "bytes"
        }
      ],
      "name": "infer",
      "outputs": [
        {
          "internalType": "uint256",
          "name": "",
          "type": "uint256"
        }
      ],
      "stateMutability": "payable",
      "type": "function"
    },
    {
      "inputs": [
        {
          "internalType": "bytes",
          "name": "_input",
          "type": "bytes"
        },
        {
          "internalType": "address",
          "name": "_creator",
          "type": "address"
        },
        {
          "internalType": "bool",
          "name": "_flag",
          "type": "bool"
        }
      ],
      "name": "infer",
      "outputs": [
        {
          "internalType": "uint256",
          "name": "",
          "type": "uint256"
        }
      ],
      "stateMutability": "payable",
      "type": "function"
    },
    {
      "inputs": [
        {
          "internalType": "bytes",
          "name": "_input",
          "type": "bytes"
        },
        {
          "internalType": "address",
          "name": "_creator",
          "type": "address"
        }
      ],
      "name": "infer",
      "outputs": [
        {
          "internalType": "uint256",
          "name": "",
          "type": "uint256"
        }
      ],
      "stateMutability": "payable",
      "type": "function"
    },
    {
      "inputs": [
        {
          "internalType": "address",
          "name": "_workerHub",
          "type": "address"
        },
        {
          "internalType": "address",
          "name": "_modelCollection",
          "type": "address"
        },
        {
          "internalType": "uint256",
          "name": "_identifier",
          "type": "uint256"
        },
        {
          "internalType": "string",
          "name": "_name",
          "type": "string"
        },
        {
          "internalType": "string",
          "name": "_metadata",
          "type": "string"
        }
      ],
      "name": "initialize",
      "outputs": [],
      "stateMutability": "nonpayable",
      "type": "function"
    },
    {
      "inputs": [],
      "name": "metadata",
      "outputs": [
        {
          "internalType": "string",
          "name": "",
          "type": "string"
        }
      ],
      "stateMutability": "view",
      "type": "function"
    },
    {
      "inputs": [],
      "name": "modelCollection",
      "outputs": [
        {
          "internalType": "address",
          "name": "",
          "type": "address"
        }
      ],
      "stateMutability": "view",
      "type": "function"
    },
    {
      "inputs": [],
      "name": "name",
      "outputs": [
        {
          "internalType": "string",
          "name": "",
          "type": "string"
        }
      ],
      "stateMutability": "view",
      "type": "function"
    },
    {
      "inputs": [],
      "name": "owner",
      "outputs": [
        {
          "internalType": "address",
          "name": "",
          "type": "address"
        }
      ],
      "stateMutability": "view",
      "type": "function"
    },
    {
      "inputs": [],
      "name": "pause",
      "outputs": [],
      "stateMutability": "nonpayable",
      "type": "function"
    },
    {
      "inputs": [],
      "name": "paused",
      "outputs": [
        {
          "internalType": "bool",
          "name": "",
          "type": "bool"
        }
      ],
      "stateMutability": "view",
      "type": "function"
    },
    {
      "inputs": [],
      "name": "renounceOwnership",
      "outputs": [],
      "stateMutability": "nonpayable",
      "type": "function"
    },
    {
      "inputs": [
        {
          "internalType": "uint256",
          "name": "_modelId",
          "type": "uint256"
        }
      ],
      "name": "setModelId",
      "outputs": [],
      "stateMutability": "nonpayable",
      "type": "function"
    },
    {
      "inputs": [
        {
          "internalType": "address",
          "name": "newOwner",
          "type": "address"
        }
      ],
      "name": "transferOwnership",
      "outputs": [],
      "stateMutability": "nonpayable",
      "type": "function"
    },
    {
      "inputs": [],
      "name": "unpause",
      "outputs": [],
      "stateMutability": "nonpayable",
      "type": "function"
    },
    {
      "inputs": [
        {
          "internalType": "uint256",
          "name": "_identifier",
          "type": "uint256"
        }
      ],
      "name": "updateIdentifier",
      "outputs": [],
      "stateMutability": "nonpayable",
      "type": "function"
    },
    {
      "inputs": [
        {
          "internalType": "string",
          "name": "_metadata",
          "type": "string"
        }
      ],
      "name": "updateMetadata",
      "outputs": [],
      "stateMutability": "nonpayable",
      "type": "function"
    },
    {
      "inputs": [
        {
          "internalType": "string",
          "name": "_name",
          "type": "string"
        }
      ],
      "name": "updateName",
      "outputs": [],
      "stateMutability": "nonpayable",
      "type": "function"
    },
    {
      "inputs": [
        {
          "internalType": "address",
          "name": "_workerHub",
          "type": "address"
        }
      ],
      "name": "updateWorkerHub",
      "outputs": [],
      "stateMutability": "nonpayable",
      "type": "function"
    },
    {
      "inputs": [],
      "name": "version",
      "outputs": [
        {
          "internalType": "string",
          "name": "",
          "type": "string"
        }
      ],
      "stateMutability": "pure",
      "type": "function"
    },
    {
      "inputs": [],
      "name": "workerHub",
      "outputs": [
        {
          "internalType": "address",
          "name": "",
          "type": "address"
        }
      ],
      "stateMutability": "view",
      "type": "function"
    },
    {
      "stateMutability": "payable",
      "type": "receive"
    }
  ],
  "bytecode": "0x6080806040523461001657611e33908161001c8239f35b600080fdfe60806040818152600480361015610021575b505050361561001f57600080fd5b005b600092833560e01c90816306fdde031461182d57508063130c280b146117705780632b0a16f5146116c2578063392f37e9146115a65780633f4ba83a1461150a5780634d1c23c0146113d85780634d9f5d671461138657806354fd4d50146112cf5780635c975abb1461128d57806367e950a81461117e578063715018a6146110dd5780637998a1c4146110a25780637c22c0e314610fdc5780638456cb5914610f3d57806384da92a714610cf6578063860e9dc614610ca35780638da5cb5b14610c4c578063918b5be1146109cc5780639ab8367e14610395578063d984445814610276578063e32842621461020c5763f2fde38b0361001157346102085760207ffffffffffffffffffffffffffffffffffffffffffffffffffffffffffffffffc36011261020857610153611a4c565b9161015c611c1b565b73ffffffffffffffffffffffffffffffffffffffff831615610185578361018284611d05565b80f35b90602060849251917f08c379a0000000000000000000000000000000000000000000000000000000008352820152602660248201527f4f776e61626c653a206e6577206f776e657220697320746865207a65726f206160448201527f64647265737300000000000000000000000000000000000000000000000000006064820152fd5b8280fd5b50346102085760207ffffffffffffffffffffffffffffffffffffffffffffffffffffffffffffffffc360112610208577f03e186105242a1073c60e85e4190610fc3cd7aa8685ef38b5fb00fb5ca834a4691602091359061026b611c1b565b81855551908152a180f35b5090807ffffffffffffffffffffffffffffffffffffffffffffffffffffffffffffffffc36011261020857813567ffffffffffffffff8111610391576102c160209136908501611a19565b90936102cb611a6f565b946102d4611b42565b6102dc611bac565b73ffffffffffffffffffffffffffffffffffffffff600354169161032c8651978895869485947fd98444580000000000000000000000000000000000000000000000000000000086528501611b0d565b039134905af191821561038757839261034f575b60208383600160cd5551908152f35b9091506020813d60201161037f575b8161036b60209383611943565b810103126102085760209250519038610340565b3d915061035e565b81513d85823e3d90fd5b8380fd5b50346102085760a07ffffffffffffffffffffffffffffffffffffffffffffffffffffffffffffffffc360112610208576103cd611a4c565b6103d5611a6f565b67ffffffffffffffff926064358481116109c8576103f69036908301611a19565b946084358181116109c45761040e9036908501611a19565b93909160369788549760ff8960081c1615978880996109b7575b80156109a0575b1561091d576104b88961048460ff8e60019e8f947fffffffffffffffffffffffffffffffffffffffffffffffffffffffffffffff00958683161783556108ef575b505460081c1661047f81611d72565b611d72565b61048d33611d05565b60ff8d5460081c169061049f82611d72565b6104a882611d72565b609b5416609b5561047f81611d72565b8960cd5573ffffffffffffffffffffffffffffffffffffffff90817fffffffffffffffffffffffff0000000000000000000000000000000000000000931683600354161760035516908454161783556044358b558181116108c3578061051e89546118f0565b95601f96878111610853575b508c908d88841160011461079c5792610791575b50507fffffffffffffffffffffffffffffffffffffffffffffffffffffffffffffffff828a1b9260031b1c19161787555b841161076557509082916105846002546118f0565b8281116106f5575b508891831160011461063b578892610630575b50507fffffffffffffffffffffffffffffffffffffffffffffffffffffffffffffffff82851b9260031b1c1916176002555b6105d9578380f35b7f7f26b83ff96e1f2b6a682f133852f6798a09c465da95921460cefb384740249892827fffffffffffffffffffffffffffffffffffffffffffffffffffffffffffff00ff6020945416905551908152a13880808380f35b01359050388061059f565b7fffffffffffffffffffffffffffffffffffffffffffffffffffffffffffffffe08694169160028a527f405787fa12a823e0f2b7631cc41b3ba8828b3321ca811111fa75cd3aa3bb5ace928a5b8181106106dd575084116106a5575b505050811b016002556105d1565b7fffffffffffffffffffffffffffffffffffffffffffffffffffffffffffffffff60f88560031b161c19910135169055388080610697565b82840135855588969094019360209283019201610688565b90919250600289527f405787fa12a823e0f2b7631cc41b3ba8828b3321ca811111fa75cd3aa3bb5ace8380860160051c8201926020871061075c575b91869589929594930160051c01915b82811061074e57505061058c565b8b8155869550889101610740565b92508192610731565b8860416024927f4e487b7100000000000000000000000000000000000000000000000000000000835252fd5b01359050388061053e565b917fffffffffffffffffffffffffffffffffffffffffffffffffffffffffffffffe08c95168584527fb10e2d527612073b26eecdfd717e6a320cf44b4afac2b0732d9fcbe2b7fa0cf6935b81811061083b57508411610803575b505050811b01875561056f565b7fffffffffffffffffffffffffffffffffffffffffffffffffffffffffffffffff60f88560031b161c199101351690553880806107f6565b8284013585558d9690940193602092830192016107e7565b909150898d527fb10e2d527612073b26eecdfd717e6a320cf44b4afac2b0732d9fcbe2b7fa0cf68780850160051c820192602086106108ba575b859493910160051c909101908b908f5b8382106108ac5750505061052a565b81558594508c91018f61089d565b9250819261088d565b60248b6041857f4e487b7100000000000000000000000000000000000000000000000000000000835252fd5b7fffffffffffffffffffffffffffffffffffffffffffffffffffffffffffff00001661010117815538610470565b60848560208e51917f08c379a0000000000000000000000000000000000000000000000000000000008352820152602e60248201527f496e697469616c697a61626c653a20636f6e747261637420697320616c72656160448201527f647920696e697469616c697a65640000000000000000000000000000000000006064820152fd5b50303b15801561042f5750600160ff8b161461042f565b50600160ff8b1610610428565b8880fd5b8680fd5b50903461020857602090817ffffffffffffffffffffffffffffffffffffffffffffffffffffffffffffffffc3601126103915767ffffffffffffffff908335828111610c4857610a1f9036908601611a19565b949092610a2a611c1b565b8511610c1c5750610a3c6002546118f0565b601f8111610bba575b5084601f8511600114610ad65791610ac591857f39b240244d76a12ce7613ed620720abc7a581774d12f26cda3b6b5d3ed535a319695948891610acb575b508560011b907fffffffffffffffffffffffffffffffffffffffffffffffffffffffffffffffff8760031b1c1916176002555b51938385948552840191611a92565b0390a180f35b905082013538610a83565b600286527f405787fa12a823e0f2b7631cc41b3ba8828b3321ca811111fa75cd3aa3bb5ace907fffffffffffffffffffffffffffffffffffffffffffffffffffffffffffffffe08616875b818110610ba3575091610ac59391877f39b240244d76a12ce7613ed620720abc7a581774d12f26cda3b6b5d3ed535a319897969410610b6b575b5050600185811b01600255610ab6565b7fffffffffffffffffffffffffffffffffffffffffffffffffffffffffffffffff60f88860031b161c19908401351690553880610b5b565b919286600181928689013581550194019201610b21565b600286527f405787fa12a823e0f2b7631cc41b3ba8828b3321ca811111fa75cd3aa3bb5ace601f860160051c810191858710610c12575b601f0160051c01905b818110610c075750610a45565b868155600101610bfa565b9091508190610bf1565b8560416024927f4e487b7100000000000000000000000000000000000000000000000000000000835252fd5b8580fd5b505034610c9f57817ffffffffffffffffffffffffffffffffffffffffffffffffffffffffffffffffc360112610c9f5760209073ffffffffffffffffffffffffffffffffffffffff606954169051908152f35b5080fd5b505034610c9f57817ffffffffffffffffffffffffffffffffffffffffffffffffffffffffffffffffc360112610c9f5760209073ffffffffffffffffffffffffffffffffffffffff600354169051908152f35b50903461020857602090817ffffffffffffffffffffffffffffffffffffffffffffffffffffffffffffffffc3601126103915767ffffffffffffffff908335828111610c4857610d499036908601611a19565b949092610d54611c1b565b8511610c1c57506001610d6781546118f0565b601f8111610ed9575b5085601f8611600114610df95791859493917fba447370ea182903b32af1af1c0da2e966ba287288b29bf2b944259d335a9a8b96610ac5948991610dee575b5086821b907fffffffffffffffffffffffffffffffffffffffffffffffffffffffffffffffff8860031b1c191617905551938385948552840191611a92565b905083013538610daf565b8187527fb10e2d527612073b26eecdfd717e6a320cf44b4afac2b0732d9fcbe2b7fa0cf6907fffffffffffffffffffffffffffffffffffffffffffffffffffffffffffffffe08716885b818110610ec457509187969593917fba447370ea182903b32af1af1c0da2e966ba287288b29bf2b944259d335a9a8b98610ac5969410610e8c575b50508086811b019055610ab6565b7fffffffffffffffffffffffffffffffffffffffffffffffffffffffffffffffff60f88960031b161c19908501351690553880610e7e565b86830135845592840192918701918701610e43565b8187527fb10e2d527612073b26eecdfd717e6a320cf44b4afac2b0732d9fcbe2b7fa0cf6601f870160051c810191868810610f33575b601f0160051c019082905b828110610f28575050610d70565b888155018290610f1a565b9091508190610f0f565b505034610c9f57817ffffffffffffffffffffffffffffffffffffffffffffffffffffffffffffffffc360112610c9f5760207f62e78cea01bee320cd4e420270b5ea74000d11b0c9f74754ebdbfc544b05a25891610f99611c1b565b610fa1611b42565b610fa9611b42565b60017fffffffffffffffffffffffffffffffffffffffffffffffffffffffffffffff00609b541617609b5551338152a180f35b509060607ffffffffffffffffffffffffffffffffffffffffffffffffffffffffffffffffc36011261020857813567ffffffffffffffff8111610391576110269036908401611a19565b611031939193611a6f565b936044359081151582036109c85760209361104a611b42565b611052611bac565b61032c73ffffffffffffffffffffffffffffffffffffffff60035416938751988996879586957f7c22c0e30000000000000000000000000000000000000000000000000000000087528601611ad1565b505034610c9f57817ffffffffffffffffffffffffffffffffffffffffffffffffffffffffffffffffc360112610c9f57602091549051908152f35b833461117b57807ffffffffffffffffffffffffffffffffffffffffffffffffffffffffffffffffc36011261117b57611114611c1b565b8073ffffffffffffffffffffffffffffffffffffffff6069547fffffffffffffffffffffffff00000000000000000000000000000000000000008116606955167f8be0079c531659141344cd1fd0a4f28419497f9722a3daafe3b4186f6b6457e08280a380f35b80fd5b509190602092837ffffffffffffffffffffffffffffffffffffffffffffffffffffffffffffffffc36011261020857803567ffffffffffffffff81116103915761122f916111d0869236908301611a19565b6111d8611b42565b6111e0611bac565b73ffffffffffffffffffffffffffffffffffffffff60035416918651958694859384937fd984445800000000000000000000000000000000000000000000000000000000855233928501611b0d565b039134905af1928315611282578093611250575b5050600160cd5551908152f35b909192508382813d831161127b575b6112698183611943565b8101031261117b575051903880611243565b503d61125f565b8251903d90823e3d90fd5b505034610c9f57817ffffffffffffffffffffffffffffffffffffffffffffffffffffffffffffffffc360112610c9f5760209060ff609b541690519015158152f35b50919034610c9f57817ffffffffffffffffffffffffffffffffffffffffffffffffffffffffffffffffc360112610c9f578051918183019083821067ffffffffffffffff83111761135a575061135693508152600682527f76302e302e310000000000000000000000000000000000000000000000000000602083015251918291826119b3565b0390f35b806041867f4e487b71000000000000000000000000000000000000000000000000000000006024945252fd5b50913461117b57807ffffffffffffffffffffffffffffffffffffffffffffffffffffffffffffffffc36011261117b575073ffffffffffffffffffffffffffffffffffffffff60209254169051908152f35b5090346102085760207ffffffffffffffffffffffffffffffffffffffffffffffffffffffffffffffffc3601126102085781359173ffffffffffffffffffffffffffffffffffffffff81541633036114885783546114615750816020917f03e186105242a1073c60e85e4190610fc3cd7aa8685ef38b5fb00fb5ca834a4693855551908152a180f35b90517f0199184d000000000000000000000000000000000000000000000000000000008152fd5b602060849251917f08c379a0000000000000000000000000000000000000000000000000000000008352820152602160248201527f43616c6c6572206973206e6f7420746865206d6f64656c436f6c6c656374696f60448201527f6e000000000000000000000000000000000000000000000000000000000000006064820152fd5b505034610c9f57817ffffffffffffffffffffffffffffffffffffffffffffffffffffffffffffffffc360112610c9f5760207f5db9ee0a495bf2e6ff9c91a7834c1ba4fdd244a5e8aa4e537bd38aeae4b073aa91611566611c1b565b61156e611c9a565b611576611c9a565b7fffffffffffffffffffffffffffffffffffffffffffffffffffffffffffffff00609b5416609b5551338152a180f35b82843461117b57807ffffffffffffffffffffffffffffffffffffffffffffffffffffffffffffffffc36011261117b5781519080600254906115e7826118f0565b80855291602091600191828116908115611677575060011461161f575b611356868861161582890383611943565b51918291826119b3565b9350600284527f405787fa12a823e0f2b7631cc41b3ba8828b3321ca811111fa75cd3aa3bb5ace5b838510611664575050505081016020016116158261135686611604565b8054868601840152938201938101611647565b611356989650879450602093506116159592507fffffffffffffffffffffffffffffffffffffffffffffffffffffffffffffff0091501682840152151560051b820101929486611604565b505034610c9f5760207ffffffffffffffffffffffffffffffffffffffffffffffffffffffffffffffffc360112610c9f5760207fc13b36de93e5efa00ccae6769264f17abfced5bee60a78d5735210c8c66b01819173ffffffffffffffffffffffffffffffffffffffff611734611a4c565b61173c611c1b565b1690817fffffffffffffffffffffffff0000000000000000000000000000000000000000600354161760035551908152a180f35b5090807ffffffffffffffffffffffffffffffffffffffffffffffffffffffffffffffffc36011261020857813567ffffffffffffffff8111610391576117b99036908401611a19565b9092602435938415158503610c48576020926117d3611b42565b6117db611bac565b73ffffffffffffffffffffffffffffffffffffffff600354169161032c8651978895869485947f7c22c0e300000000000000000000000000000000000000000000000000000000865233928601611ad1565b8390853461117b57807ffffffffffffffffffffffffffffffffffffffffffffffffffffffffffffffffc36011261117b5780600180549061186d826118f0565b8086529260209260018116908115611677575060011461189857611356868861161582890383611943565b9350600184527fb10e2d527612073b26eecdfd717e6a320cf44b4afac2b0732d9fcbe2b7fa0cf65b8385106118dd575050505081016020016116158261135686611604565b80548686018401529382019381016118c0565b90600182811c92168015611939575b602083101461190a57565b7f4e487b7100000000000000000000000000000000000000000000000000000000600052602260045260246000fd5b91607f16916118ff565b90601f7fffffffffffffffffffffffffffffffffffffffffffffffffffffffffffffffe0910116810190811067ffffffffffffffff82111761198457604052565b7f4e487b7100000000000000000000000000000000000000000000000000000000600052604160045260246000fd5b60208082528251818301819052939260005b858110611a05575050507fffffffffffffffffffffffffffffffffffffffffffffffffffffffffffffffe0601f8460006040809697860101520116010190565b8181018301518482016040015282016119c5565b9181601f84011215611a475782359167ffffffffffffffff8311611a475760208381860195010111611a4757565b600080fd5b6004359073ffffffffffffffffffffffffffffffffffffffff82168203611a4757565b6024359073ffffffffffffffffffffffffffffffffffffffff82168203611a4757565b601f82602094937fffffffffffffffffffffffffffffffffffffffffffffffffffffffffffffffe0938186528686013760008582860101520116010190565b92949390611aff73ffffffffffffffffffffffffffffffffffffffff91604094606087526060870191611a92565b951660208401521515910152565b91611b3b60209273ffffffffffffffffffffffffffffffffffffffff92969596604086526040860191611a92565b9416910152565b60ff609b5416611b4e57565b60646040517f08c379a000000000000000000000000000000000000000000000000000000000815260206004820152601060248201527f5061757361626c653a20706175736564000000000000000000000000000000006044820152fd5b600260cd5414611bbd57600260cd55565b60646040517f08c379a000000000000000000000000000000000000000000000000000000000815260206004820152601f60248201527f5265656e7472616e637947756172643a207265656e7472616e742063616c6c006044820152fd5b73ffffffffffffffffffffffffffffffffffffffff606954163303611c3c57565b60646040517f08c379a000000000000000000000000000000000000000000000000000000000815260206004820152602060248201527f4f776e61626c653a2063616c6c6572206973206e6f7420746865206f776e65726044820152fd5b60ff609b541615611ca757565b60646040517f08c379a000000000000000000000000000000000000000000000000000000000815260206004820152601460248201527f5061757361626c653a206e6f74207061757365640000000000000000000000006044820152fd5b6069549073ffffffffffffffffffffffffffffffffffffffff80911691827fffffffffffffffffffffffff0000000000000000000000000000000000000000821617606955167f8be0079c531659141344cd1fd0a4f28419497f9722a3daafe3b4186f6b6457e0600080a3565b15611d7957565b60846040517f08c379a000000000000000000000000000000000000000000000000000000000815260206004820152602b60248201527f496e697469616c697a61626c653a20636f6e7472616374206973206e6f74206960448201527f6e697469616c697a696e670000000000000000000000000000000000000000006064820152fdfea264697066735822122020481abc4464c1fd4af962ba7bfb3f48de0a5a3f7d2ca2db380aaec5da65c80d64736f6c63430008160033",
  "linkReferences": {},
  "deployedLinkReferences": {}
}