{
  "_format": "hh-sol-artifact-1",
  "contractName": "ModelCollection",
  "sourceName": "contracts/ModelCollection.sol",
  "abi": [
    {
      "inputs": [],
      "name": "AlreadyMinted",
      "type": "error"
    },
    {
      "inputs": [],
      "name": "Authorized",
      "type": "error"
    },
    {
      "inputs": [],
      "name": "FailedTransfer",
      "type": "error"
    },
    {
      "inputs": [],
      "name": "FailedTransfer",
      "type": "error"
    },
    {
      "inputs": [],
      "name": "InsufficientFunds",
      "type": "error"
    },
    {
      "inputs": [],
      "name": "InvalidModel",
      "type": "error"
    },
    {
      "inputs": [],
      "name": "InvalidSignature",
      "type": "error"
    },
    {
      "inputs": [],
      "name": "InvalidValue",
      "type": "error"
    },
    {
      "inputs": [],
      "name": "Unauthorized",
      "type": "error"
    },
    {
      "anonymous": false,
      "inputs": [
        {
          "indexed": true,
          "internalType": "address",
          "name": "owner",
          "type": "address"
        },
        {
          "indexed": true,
          "internalType": "address",
          "name": "approved",
          "type": "address"
        },
        {
          "indexed": true,
          "internalType": "uint256",
          "name": "tokenId",
          "type": "uint256"
        }
      ],
      "name": "Approval",
      "type": "event"
    },
    {
      "anonymous": false,
      "inputs": [
        {
          "indexed": true,
          "internalType": "address",
          "name": "owner",
          "type": "address"
        },
        {
          "indexed": true,
          "internalType": "address",
          "name": "operator",
          "type": "address"
        },
        {
          "indexed": false,
          "internalType": "bool",
          "name": "approved",
          "type": "bool"
        }
      ],
      "name": "ApprovalForAll",
      "type": "event"
    },
    {
      "anonymous": false,
      "inputs": [
        {
          "indexed": false,
          "internalType": "uint256",
          "name": "_fromTokenId",
          "type": "uint256"
        },
        {
          "indexed": false,
          "internalType": "uint256",
          "name": "_toTokenId",
          "type": "uint256"
        }
      ],
      "name": "BatchMetadataUpdate",
      "type": "event"
    },
    {
      "anonymous": false,
      "inputs": [],
      "name": "EIP712DomainChanged",
      "type": "event"
    },
    {
      "anonymous": false,
      "inputs": [
        {
          "indexed": false,
          "internalType": "uint8",
          "name": "version",
          "type": "uint8"
        }
      ],
      "name": "Initialized",
      "type": "event"
    },
    {
      "anonymous": false,
      "inputs": [
        {
          "indexed": true,
          "internalType": "address",
          "name": "account",
          "type": "address"
        }
      ],
      "name": "ManagerAuthorization",
      "type": "event"
    },
    {
      "anonymous": false,
      "inputs": [
        {
          "indexed": true,
          "internalType": "address",
          "name": "account",
          "type": "address"
        }
      ],
      "name": "ManagerDeauthorization",
      "type": "event"
    },
    {
      "anonymous": false,
      "inputs": [
        {
          "indexed": false,
          "internalType": "uint256",
          "name": "_tokenId",
          "type": "uint256"
        }
      ],
      "name": "MetadataUpdate",
      "type": "event"
    },
    {
      "anonymous": false,
      "inputs": [
        {
          "indexed": false,
          "internalType": "uint256",
          "name": "newValue",
          "type": "uint256"
        }
      ],
      "name": "MintPriceUpdate",
      "type": "event"
    },
    {
      "anonymous": false,
      "inputs": [
        {
          "indexed": true,
          "internalType": "uint256",
          "name": "modelId",
          "type": "uint256"
        },
        {
          "indexed": false,
          "internalType": "string",
          "name": "uri",
          "type": "string"
        }
      ],
      "name": "ModelURIUpdate",
      "type": "event"
    },
    {
      "anonymous": false,
      "inputs": [
        {
          "indexed": true,
          "internalType": "address",
          "name": "caller",
          "type": "address"
        },
        {
          "indexed": true,
          "internalType": "address",
          "name": "owner",
          "type": "address"
        },
        {
          "indexed": true,
          "internalType": "uint256",
          "name": "modelId",
          "type": "uint256"
        },
        {
          "indexed": false,
          "internalType": "string",
          "name": "uri",
          "type": "string"
        }
      ],
      "name": "NewModel",
      "type": "event"
    },
    {
      "anonymous": false,
      "inputs": [
        {
          "indexed": true,
          "internalType": "address",
          "name": "previousOwner",
          "type": "address"
        },
        {
          "indexed": true,
          "internalType": "address",
          "name": "newOwner",
          "type": "address"
        }
      ],
      "name": "OwnershipTransferred",
      "type": "event"
    },
    {
      "anonymous": false,
      "inputs": [
        {
          "indexed": false,
          "internalType": "address",
          "name": "account",
          "type": "address"
        }
      ],
      "name": "Paused",
      "type": "event"
    },
    {
      "anonymous": false,
      "inputs": [
        {
          "indexed": false,
          "internalType": "uint16",
          "name": "newValue",
          "type": "uint16"
        }
      ],
      "name": "RoyaltyPortionUpdate",
      "type": "event"
    },
    {
      "anonymous": false,
      "inputs": [
        {
          "indexed": false,
          "internalType": "address",
          "name": "newAddress",
          "type": "address"
        }
      ],
      "name": "RoyaltyReceiverUpdate",
      "type": "event"
    },
    {
      "anonymous": false,
      "inputs": [
        {
          "indexed": true,
          "internalType": "address",
          "name": "from",
          "type": "address"
        },
        {
          "indexed": true,
          "internalType": "address",
          "name": "to",
          "type": "address"
        },
        {
          "indexed": true,
          "internalType": "uint256",
          "name": "tokenId",
          "type": "uint256"
        }
      ],
      "name": "Transfer",
      "type": "event"
    },
    {
      "anonymous": false,
      "inputs": [
        {
          "indexed": false,
          "internalType": "address",
          "name": "account",
          "type": "address"
        }
      ],
      "name": "Unpaused",
      "type": "event"
    },
    {
      "anonymous": false,
      "inputs": [
        {
          "indexed": false,
          "internalType": "address",
          "name": "oldToken",
          "type": "address"
        },
        {
          "indexed": false,
          "internalType": "address",
          "name": "newToken",
          "type": "address"
        }
      ],
      "name": "WEAITokenUpdate",
      "type": "event"
    },
    {
      "inputs": [
        {
          "internalType": "address",
          "name": "",
          "type": "address"
        }
      ],
      "name": "_isManager",
      "outputs": [
        {
          "internalType": "bool",
          "name": "",
          "type": "bool"
        }
      ],
      "stateMutability": "view",
      "type": "function"
    },
    {
      "inputs": [],
      "name": "_mintPrice",
      "outputs": [
        {
          "internalType": "uint256",
          "name": "",
          "type": "uint256"
        }
      ],
      "stateMutability": "view",
      "type": "function"
    },
    {
      "inputs": [],
      "name": "_nextModelId",
      "outputs": [
        {
          "internalType": "uint256",
          "name": "",
          "type": "uint256"
        }
      ],
      "stateMutability": "view",
      "type": "function"
    },
    {
      "inputs": [],
      "name": "_royaltyPortion",
      "outputs": [
        {
          "internalType": "uint16",
          "name": "",
          "type": "uint16"
        }
      ],
      "stateMutability": "view",
      "type": "function"
    },
    {
      "inputs": [],
      "name": "_royaltyReceiver",
      "outputs": [
        {
          "internalType": "address",
          "name": "",
          "type": "address"
        }
      ],
      "stateMutability": "view",
      "type": "function"
    },
    {
      "inputs": [],
      "name": "_wEAIToken",
      "outputs": [
        {
          "internalType": "address",
          "name": "",
          "type": "address"
        }
      ],
      "stateMutability": "view",
      "type": "function"
    },
    {
      "inputs": [
        {
          "internalType": "address",
          "name": "to",
          "type": "address"
        },
        {
          "internalType": "uint256",
          "name": "tokenId",
          "type": "uint256"
        }
      ],
      "name": "approve",
      "outputs": [],
      "stateMutability": "nonpayable",
      "type": "function"
    },
    {
      "inputs": [
        {
          "internalType": "address",
          "name": "account",
          "type": "address"
        }
      ],
      "name": "authorizeManager",
      "outputs": [],
      "stateMutability": "nonpayable",
      "type": "function"
    },
    {
      "inputs": [
        {
          "internalType": "address",
          "name": "owner",
          "type": "address"
        }
      ],
      "name": "balanceOf",
      "outputs": [
        {
          "internalType": "uint256",
          "name": "",
          "type": "uint256"
        }
      ],
      "stateMutability": "view",
      "type": "function"
    },
    {
      "inputs": [
        {
          "internalType": "uint256",
          "name": "modelId",
          "type": "uint256"
        }
      ],
      "name": "checkModelExist",
      "outputs": [
        {
          "internalType": "bool",
          "name": "",
          "type": "bool"
        }
      ],
      "stateMutability": "view",
      "type": "function"
    },
    {
      "inputs": [
        {
          "internalType": "address",
          "name": "account",
          "type": "address"
        }
      ],
      "name": "deauthorizeManager",
      "outputs": [],
      "stateMutability": "nonpayable",
      "type": "function"
    },
    {
      "inputs": [],
      "name": "eip712Domain",
      "outputs": [
        {
          "internalType": "bytes1",
          "name": "fields",
          "type": "bytes1"
        },
        {
          "internalType": "string",
          "name": "name",
          "type": "string"
        },
        {
          "internalType": "string",
          "name": "version",
          "type": "string"
        },
        {
          "internalType": "uint256",
          "name": "chainId",
          "type": "uint256"
        },
        {
          "internalType": "address",
          "name": "verifyingContract",
          "type": "address"
        },
        {
          "internalType": "bytes32",
          "name": "salt",
          "type": "bytes32"
        },
        {
          "internalType": "uint256[]",
          "name": "extensions",
          "type": "uint256[]"
        }
      ],
      "stateMutability": "view",
      "type": "function"
    },
    {
      "inputs": [
        {
          "internalType": "uint256",
          "name": "tokenId",
          "type": "uint256"
        }
      ],
      "name": "getApproved",
      "outputs": [
        {
          "internalType": "address",
          "name": "",
          "type": "address"
        }
      ],
      "stateMutability": "view",
      "type": "function"
    },
    {
      "inputs": [
        {
          "internalType": "string",
          "name": "name_",
          "type": "string"
        },
        {
          "internalType": "string",
          "name": "symbol_",
          "type": "string"
        },
        {
          "internalType": "uint256",
          "name": "mintPrice_",
          "type": "uint256"
        },
        {
          "internalType": "address",
          "name": "royaltyReceiver_",
          "type": "address"
        },
        {
          "internalType": "uint16",
          "name": "royaltyPortion_",
          "type": "uint16"
        },
        {
          "internalType": "uint256",
          "name": "nextModelId_",
          "type": "uint256"
        },
        {
          "internalType": "address",
          "name": "wEAIToken_",
          "type": "address"
        }
      ],
      "name": "initialize",
      "outputs": [],
      "stateMutability": "nonpayable",
      "type": "function"
    },
    {
      "inputs": [
        {
          "internalType": "address",
          "name": "owner",
          "type": "address"
        },
        {
          "internalType": "address",
          "name": "operator",
          "type": "address"
        }
      ],
      "name": "isApprovedForAll",
      "outputs": [
        {
          "internalType": "bool",
          "name": "",
          "type": "bool"
        }
      ],
      "stateMutability": "view",
      "type": "function"
    },
    {
      "inputs": [
        {
          "internalType": "address",
          "name": "account",
          "type": "address"
        }
      ],
      "name": "isManager",
      "outputs": [
        {
          "internalType": "bool",
          "name": "",
          "type": "bool"
        }
      ],
      "stateMutability": "view",
      "type": "function"
    },
    {
      "inputs": [
        {
          "internalType": "address",
          "name": "to",
          "type": "address"
        },
        {
          "internalType": "string",
          "name": "uri",
          "type": "string"
        }
      ],
      "name": "mint",
      "outputs": [
        {
          "internalType": "uint256",
          "name": "",
          "type": "uint256"
        }
      ],
      "stateMutability": "nonpayable",
      "type": "function"
    },
    {
      "inputs": [],
      "name": "mintPrice",
      "outputs": [
        {
          "internalType": "uint256",
          "name": "",
          "type": "uint256"
        }
      ],
      "stateMutability": "view",
      "type": "function"
    },
    {
      "inputs": [],
      "name": "name",
      "outputs": [
        {
          "internalType": "string",
          "name": "",
          "type": "string"
        }
      ],
      "stateMutability": "view",
      "type": "function"
    },
    {
      "inputs": [],
      "name": "nextModelId",
      "outputs": [
        {
          "internalType": "uint256",
          "name": "",
          "type": "uint256"
        }
      ],
      "stateMutability": "view",
      "type": "function"
    },
    {
      "inputs": [],
      "name": "owner",
      "outputs": [
        {
          "internalType": "address",
          "name": "",
          "type": "address"
        }
      ],
      "stateMutability": "view",
      "type": "function"
    },
    {
      "inputs": [
        {
          "internalType": "uint256",
          "name": "tokenId",
          "type": "uint256"
        }
      ],
      "name": "ownerOf",
      "outputs": [
        {
          "internalType": "address",
          "name": "",
          "type": "address"
        }
      ],
      "stateMutability": "view",
      "type": "function"
    },
    {
      "inputs": [],
      "name": "pause",
      "outputs": [],
      "stateMutability": "nonpayable",
      "type": "function"
    },
    {
      "inputs": [],
      "name": "paused",
      "outputs": [
        {
          "internalType": "bool",
          "name": "",
          "type": "bool"
        }
      ],
      "stateMutability": "view",
      "type": "function"
    },
    {
      "inputs": [],
      "name": "renounceOwnership",
      "outputs": [],
      "stateMutability": "nonpayable",
      "type": "function"
    },
    {
      "inputs": [
        {
          "internalType": "uint256",
          "name": "modelId",
          "type": "uint256"
        },
        {
          "internalType": "uint256",
          "name": "salePrice",
          "type": "uint256"
        }
      ],
      "name": "royaltyInfo",
      "outputs": [
        {
          "internalType": "address",
          "name": "receiver",
          "type": "address"
        },
        {
          "internalType": "uint256",
          "name": "royaltyAmount",
          "type": "uint256"
        }
      ],
      "stateMutability": "view",
      "type": "function"
    },
    {
      "inputs": [],
      "name": "royaltyPortion",
      "outputs": [
        {
          "internalType": "uint16",
          "name": "",
          "type": "uint16"
        }
      ],
      "stateMutability": "view",
      "type": "function"
    },
    {
      "inputs": [],
      "name": "royaltyReceiver",
      "outputs": [
        {
          "internalType": "address",
          "name": "",
          "type": "address"
        }
      ],
      "stateMutability": "view",
      "type": "function"
    },
    {
      "inputs": [
        {
          "internalType": "address",
          "name": "from",
          "type": "address"
        },
        {
          "internalType": "address",
          "name": "to",
          "type": "address"
        },
        {
          "internalType": "uint256",
          "name": "tokenId",
          "type": "uint256"
        }
      ],
      "name": "safeTransferFrom",
      "outputs": [],
      "stateMutability": "nonpayable",
      "type": "function"
    },
    {
      "inputs": [
        {
          "internalType": "address",
          "name": "from",
          "type": "address"
        },
        {
          "internalType": "address",
          "name": "to",
          "type": "address"
        },
        {
          "internalType": "uint256",
          "name": "tokenId",
          "type": "uint256"
        },
        {
          "internalType": "bytes",
          "name": "data",
          "type": "bytes"
        }
      ],
      "name": "safeTransferFrom",
      "outputs": [],
      "stateMutability": "nonpayable",
      "type": "function"
    },
    {
      "inputs": [
        {
          "internalType": "address",
          "name": "operator",
          "type": "address"
        },
        {
          "internalType": "bool",
          "name": "approved",
          "type": "bool"
        }
      ],
      "name": "setApprovalForAll",
      "outputs": [],
      "stateMutability": "nonpayable",
      "type": "function"
    },
    {
      "inputs": [
        {
          "internalType": "bytes4",
          "name": "interfaceId",
          "type": "bytes4"
        }
      ],
      "name": "supportsInterface",
      "outputs": [
        {
          "internalType": "bool",
          "name": "",
          "type": "bool"
        }
      ],
      "stateMutability": "view",
      "type": "function"
    },
    {
      "inputs": [],
      "name": "symbol",
      "outputs": [
        {
          "internalType": "string",
          "name": "",
          "type": "string"
        }
      ],
      "stateMutability": "view",
      "type": "function"
    },
    {
      "inputs": [
        {
          "internalType": "uint256",
          "name": "index",
          "type": "uint256"
        }
      ],
      "name": "tokenByIndex",
      "outputs": [
        {
          "internalType": "uint256",
          "name": "",
          "type": "uint256"
        }
      ],
      "stateMutability": "view",
      "type": "function"
    },
    {
      "inputs": [
        {
          "internalType": "address",
          "name": "owner",
          "type": "address"
        },
        {
          "internalType": "uint256",
          "name": "index",
          "type": "uint256"
        }
      ],
      "name": "tokenOfOwnerByIndex",
      "outputs": [
        {
          "internalType": "uint256",
          "name": "",
          "type": "uint256"
        }
      ],
      "stateMutability": "view",
      "type": "function"
    },
    {
      "inputs": [
        {
          "internalType": "uint256",
          "name": "modelId",
          "type": "uint256"
        }
      ],
      "name": "tokenURI",
      "outputs": [
        {
          "internalType": "string",
          "name": "",
          "type": "string"
        }
      ],
      "stateMutability": "view",
      "type": "function"
    },
    {
      "inputs": [],
      "name": "totalSupply",
      "outputs": [
        {
          "internalType": "uint256",
          "name": "",
          "type": "uint256"
        }
      ],
      "stateMutability": "view",
      "type": "function"
    },
    {
      "inputs": [
        {
          "internalType": "address",
          "name": "from",
          "type": "address"
        },
        {
          "internalType": "address",
          "name": "to",
          "type": "address"
        },
        {
          "internalType": "uint256",
          "name": "tokenId",
          "type": "uint256"
        }
      ],
      "name": "transferFrom",
      "outputs": [],
      "stateMutability": "nonpayable",
      "type": "function"
    },
    {
      "inputs": [
        {
          "internalType": "address",
          "name": "newOwner",
          "type": "address"
        }
      ],
      "name": "transferOwnership",
      "outputs": [],
      "stateMutability": "nonpayable",
      "type": "function"
    },
    {
      "inputs": [],
      "name": "unpause",
      "outputs": [],
      "stateMutability": "nonpayable",
      "type": "function"
    },
    {
      "inputs": [
        {
          "internalType": "uint256",
          "name": "newPrice",
          "type": "uint256"
        }
      ],
      "name": "updateMintPrice",
      "outputs": [],
      "stateMutability": "nonpayable",
      "type": "function"
    },
    {
      "inputs": [
        {
          "internalType": "uint256",
          "name": "modelId",
          "type": "uint256"
        },
        {
          "internalType": "string",
          "name": "uri",
          "type": "string"
        }
      ],
      "name": "updateModelURI",
      "outputs": [],
      "stateMutability": "nonpayable",
      "type": "function"
    },
    {
      "inputs": [
        {
          "internalType": "uint16",
          "name": "newPortion",
          "type": "uint16"
        }
      ],
      "name": "updateRoyaltyPortion",
      "outputs": [],
      "stateMutability": "nonpayable",
      "type": "function"
    },
    {
      "inputs": [
        {
          "internalType": "address",
          "name": "newReceiver",
          "type": "address"
        }
      ],
      "name": "updateRoyaltyReceiver",
      "outputs": [],
      "stateMutability": "nonpayable",
      "type": "function"
    },
    {
      "inputs": [
        {
          "internalType": "address",
          "name": "newToken",
          "type": "address"
        }
      ],
      "name": "updateWEAIToken",
      "outputs": [],
      "stateMutability": "nonpayable",
      "type": "function"
    },
    {
      "inputs": [],
      "name": "version",
      "outputs": [
        {
          "internalType": "string",
          "name": "",
          "type": "string"
        }
      ],
      "stateMutability": "pure",
      "type": "function"
    },
    {
      "inputs": [],
      "name": "wEAIToken",
      "outputs": [
        {
          "internalType": "address",
          "name": "",
          "type": "address"
        }
      ],
      "stateMutability": "view",
      "type": "function"
    },
    {
      "inputs": [
        {
          "internalType": "address",
          "name": "to",
          "type": "address"
        },
        {
          "internalType": "uint256",
          "name": "value",
          "type": "uint256"
        }
      ],
      "name": "withdraw",
      "outputs": [],
      "stateMutability": "nonpayable",
      "type": "function"
    },
    {
      "stateMutability": "payable",
      "type": "receive"
    }
  ],
  "bytecode": "0x6080806040523461001657613e10908161001c8239f35b600080fdfe6080604052600436101561001b575b361561001957600080fd5b005b60003560e01c8062728e4614612b5f57806301ffc9a7146129d65780630305ea011461290f5780630387da42146114c557806306fdde031461284b578063081812fc1461280f578063095ea7b31461260457806311d7beb21461150157806317f899631461254857806318160ddd1461250b5780631950a503146102b857806319e93993146124505780631c3ff82f14610f815780631ec60b1714611c5d57806323b872dd14611c39578063267c850714611b4657806329dc4d9b14611a9b5780632a55205a146119f55780632f745c59146118eb578063376d28e6146104de5780633f4ba83a1461184f57806342842e0e1461181c5780634f6ccce714611742578063534f3b4d1461169e57806354fd4d50146115e05780635c975abb1461159e5780636352211e14611544578063637ecfc8146115015780636817c76c146114c557806370a082311461147c578063715018a6146113dc57806376d1493f146113725780638456cb59146112d357806384b0196e14610fd3578063871c15b114610f815780638da5cb5b14610f2e57806395d89b4114610e105780639fbc87131461048c578063a22cb46514610cdc578063b88d4fde14610c3d578063c87b56dd14610ae2578063d0def5211461051a578063e472ae8b146104de578063e637f98f1461048c578063e985e9c51461040a578063f2fde38b14610322578063f3ae2415146102b85763f3fef3a30361000e57346102b35760407ffffffffffffffffffffffffffffffffffffffffffffffffffffffffffffffffc3601126102b357600080808061026b612bc9565b610273612dc9565b602435905af1610281613611565b501561028957005b60046040517fbfa871c5000000000000000000000000000000000000000000000000000000008152fd5b600080fd5b346102b35760207ffffffffffffffffffffffffffffffffffffffffffffffffffffffffffffffffc3601126102b35773ffffffffffffffffffffffffffffffffffffffff610304612bc9565b16600052609a602052602060ff604060002054166040519015158152f35b346102b35760207ffffffffffffffffffffffffffffffffffffffffffffffffffffffffffffffffc3601126102b357610359612bc9565b610361612dc9565b73ffffffffffffffffffffffffffffffffffffffff8116156103865761001990612e49565b60846040517f08c379a000000000000000000000000000000000000000000000000000000000815260206004820152602660248201527f4f776e61626c653a206e6577206f776e657220697320746865207a65726f206160448201527f64647265737300000000000000000000000000000000000000000000000000006064820152fd5b346102b35760407ffffffffffffffffffffffffffffffffffffffffffffffffffffffffffffffffc3601126102b357610441612bc9565b610449612bec565b9073ffffffffffffffffffffffffffffffffffffffff809116600052606a60205260406000209116600052602052602060ff604060002054166040519015158152f35b346102b35760007ffffffffffffffffffffffffffffffffffffffffffffffffffffffffffffffffc3601126102b357602073ffffffffffffffffffffffffffffffffffffffff60995416604051908152f35b346102b35760007ffffffffffffffffffffffffffffffffffffffffffffffffffffffffffffffffc3601126102b3576020609754604051908152f35b346102b35760407ffffffffffffffffffffffffffffffffffffffffffffffffffffffffffffffffc3601126102b357610551612bc9565b60249067ffffffffffffffff9082358281116102b357610575903690600401612c6d565b9073ffffffffffffffffffffffffffffffffffffffff91826101ca541633141580610ac9575b610a9f576097546105ab81613a63565b6097555b6105dc81600052606760205273ffffffffffffffffffffffffffffffffffffffff60406000205416151590565b156105ef576105ea90613a63565b6105af565b939463ffffffff851015610a755760985480610922575b50506040519261061584612cfb565b6000845285169283156108c55761065861065286600052606760205273ffffffffffffffffffffffffffffffffffffffff60406000205416151590565b15613ad6565b61010495865496866000526020976101058952806040600020556801000000000000000081101561089757610697816106cd9360018b9401905561389b565b9091907fffffffffffffffffffffffffffffffffffffffffffffffffffffffffffffffff83549160031b92831b921b1916179055565b6106d681612eb7565b85600052610102885260406000208160005288528660406000205586600052610103885260406000205560ff610134541661081457859493926107e76107e27fe9483618ed88dacb391de5ab755452820de95aad7cca806fddd79e1768d3eb4994886108099561076c61065283600052606760205273ffffffffffffffffffffffffffffffffffffffff60406000205416151590565b8960005260688d526040600020600181540190558160005260678d5260406000208a7fffffffffffffffffffffffff0000000000000000000000000000000000000000825416179055818a60007fddf252ad1be2c89b69c2b068fc378daa952ba7f163c4a11628f55a4df523b3ef8180a4613641565b613134565b6107fb6107f5368387612d92565b87613b3b565b604051918291339583613a90565b0390a4604051908152f35b608487602b8a604051927f08c379a000000000000000000000000000000000000000000000000000000000845260048401528201527f4552433732315061757361626c653a20746f6b656e207472616e73666572207760448201527f68696c65207061757365640000000000000000000000000000000000000000006064820152fd5b897f4e487b710000000000000000000000000000000000000000000000000000000060005260416004526000fd5b6064876020604051917f08c379a00000000000000000000000000000000000000000000000000000000083528160048401528201527f4552433732313a206d696e7420746f20746865207a65726f20616464726573736044820152fd5b84609b54166040516060810181811085821117610a47577fffffffff00000000000000000000000000000000000000000000000000000000916025916040528181527f7432353629000000000000000000000000000000000000000000000000000000604060208301927f7472616e7366657246726f6d28616464726573732c616464726573732c75696e8452015220166040519260208401918252338b85015230604485015260648401526064835260a083019383851090851117610897576000809493819460405251925af16109f8613611565b9015908115610a0e575b50610289578680610606565b8051801515925082610a23575b505087610a02565b81925090602091810103126102b357602001518015908115036102b3578780610a1b565b8a7f4e487b710000000000000000000000000000000000000000000000000000000060005260416004526000fd5b60046040517faa7feadc000000000000000000000000000000000000000000000000000000008152fd5b60046040517f82b42900000000000000000000000000000000000000000000000000000000008152fd5b5033600052609a60205260ff604060002054161561059b565b346102b3576020807ffffffffffffffffffffffffffffffffffffffffffffffffffffffffffffffffc3601126102b357600435610b4a610b4582600052606760205273ffffffffffffffffffffffffffffffffffffffff60406000205416151590565b612f68565b6000526101988152604060002090604051918260008254610b6a81612fff565b93848452600191868382169182600014610bfc575050600114610bbd575b5050610b9692500383612d17565b6000604051610ba481612cfb565b52610bb9604051928284938452830190612c0f565b0390f35b85925060005281600020906000915b858310610be4575050610b9693508201018580610b88565b80548389018501528794508693909201918101610bcc565b91509350610b969592507fffffffffffffffffffffffffffffffffffffffffffffffffffffffffffffff0091501682840152151560051b8201018580610b88565b346102b35760807ffffffffffffffffffffffffffffffffffffffffffffffffffffffffffffffffc3601126102b357610c74612bc9565b610c7c612bec565b906064359060443567ffffffffffffffff83116102b357366023840112156102b35761001993610cb96107e2943690602481600401359101612d92565b92610ccc610cc784336131c0565b6130a9565b610cd78383836132c6565b6137fb565b346102b35760407ffffffffffffffffffffffffffffffffffffffffffffffffffffffffffffffffc3601126102b357610d13612bc9565b602435908115158092036102b35773ffffffffffffffffffffffffffffffffffffffff1690813314610db25733600052606a60205260406000208260005260205260406000207fffffffffffffffffffffffffffffffffffffffffffffffffffffffffffffff0081541660ff83161790556040519081527f17307eab39ab6107e8899845ad3d59bd9653f200f220920489ca2b5937696c3160203392a3005b60646040517f08c379a000000000000000000000000000000000000000000000000000000000815260206004820152601960248201527f4552433732313a20617070726f766520746f2063616c6c6572000000000000006044820152fd5b346102b35760007ffffffffffffffffffffffffffffffffffffffffffffffffffffffffffffffffc3601126102b3576040516000606654610e5081612fff565b80845290600190818116908115610ee95750600114610e8e575b610bb984610e7a81860382612d17565b604051918291602083526020830190612c0f565b6066600090815292507f46501879b8ca8525e8c2fd519e2fbfcfa2ebea26501294aa02cbfcfb12e943545b828410610ed1575050508101602001610e7a82610e6a565b80546020858701810191909152909301928101610eb9565b7fffffffffffffffffffffffffffffffffffffffffffffffffffffffffffffff001660208087019190915292151560051b85019092019250610e7a9150839050610e6a565b346102b35760007ffffffffffffffffffffffffffffffffffffffffffffffffffffffffffffffffc3601126102b357602073ffffffffffffffffffffffffffffffffffffffff6101ca5416604051908152f35b346102b35760007ffffffffffffffffffffffffffffffffffffffffffffffffffffffffffffffffc3601126102b357602073ffffffffffffffffffffffffffffffffffffffff609b5416604051908152f35b346102b35760007ffffffffffffffffffffffffffffffffffffffffffffffffffffffffffffffffc3601126102b35760ce5415806112c9575b1561126b5760405160d0549060008161102484612fff565b91828252600194858116908160001461122e57506001146111cd575b61104c92500382612d17565b6040519060008260d1549161106083612fff565b80835292868116908115611190575060011461112f575b61108692509492940383612d17565b6040519261109384612cfb565b600084526110e5604051937f0f0000000000000000000000000000000000000000000000000000000000000085526110d760209360e08588015260e0870190612c0f565b908582036040870152612c0f565b466060850152306080850152600060a085015283810360c085015281808651928381520195019160005b82811061111c5785870386f35b835187529581019592810192840161110f565b509060d16000527f695fb3134ad82c3b8022bc5464edd0bcc9424ef672b52245dcb6ab2374327ce390856000925b8284106111765750505090602061108692820101611077565b60209294508054838589010152019101909185859361115d565b602092506110869491507fffffffffffffffffffffffffffffffffffffffffffffffffffffffffffffff001682840152151560051b820101611077565b509060d06000527fe89d44c8fd6a9bac8af33ce47f56337617d449bf7ff3956b618c646de829cbcb90846000925b8284106112145750505090602061104c92820101611040565b6020929450805483858801015201910190918484936111fb565b6020925061104c9491507fffffffffffffffffffffffffffffffffffffffffffffffffffffffffffffff001682840152151560051b820101611040565b60646040517f08c379a000000000000000000000000000000000000000000000000000000000815260206004820152601560248201527f4549503731323a20556e696e697469616c697a656400000000000000000000006044820152fd5b5060cf541561100c565b346102b35760007ffffffffffffffffffffffffffffffffffffffffffffffffffffffffffffffffc3601126102b35761130a612dc9565b61131261398c565b61131a61398c565b61013460017fffffffffffffffffffffffffffffffffffffffffffffffffffffffffffffff008254161790557f62e78cea01bee320cd4e420270b5ea74000d11b0c9f74754ebdbfc544b05a2586020604051338152a1005b346102b35760207ffffffffffffffffffffffffffffffffffffffffffffffffffffffffffffffffc3601126102b35760206113d2600435600052606760205273ffffffffffffffffffffffffffffffffffffffff60406000205416151590565b6040519015158152f35b346102b35760007ffffffffffffffffffffffffffffffffffffffffffffffffffffffffffffffffc3601126102b357611413612dc9565b600073ffffffffffffffffffffffffffffffffffffffff6101ca8054907fffffffffffffffffffffffff000000000000000000000000000000000000000082169055167f8be0079c531659141344cd1fd0a4f28419497f9722a3daafe3b4186f6b6457e08280a3005b346102b35760207ffffffffffffffffffffffffffffffffffffffffffffffffffffffffffffffffc3601126102b35760206114bd6114b8612bc9565b612eb7565b604051908152f35b346102b35760007ffffffffffffffffffffffffffffffffffffffffffffffffffffffffffffffffc3601126102b3576020609854604051908152f35b346102b35760007ffffffffffffffffffffffffffffffffffffffffffffffffffffffffffffffffc3601126102b357602061ffff60995460a01c16604051908152f35b346102b35760207ffffffffffffffffffffffffffffffffffffffffffffffffffffffffffffffffc3601126102b3576020611580600435612fcd565b73ffffffffffffffffffffffffffffffffffffffff60405191168152f35b346102b35760007ffffffffffffffffffffffffffffffffffffffffffffffffffffffffffffffffc3601126102b357602060ff61013454166040519015158152f35b346102b35760007ffffffffffffffffffffffffffffffffffffffffffffffffffffffffffffffffc3601126102b357604051604081019080821067ffffffffffffffff83111761166f57610bb991604052600681527f76302e302e3100000000000000000000000000000000000000000000000000006020820152604051918291602083526020830190612c0f565b7f4e487b7100000000000000000000000000000000000000000000000000000000600052604160045260246000fd5b346102b35760407ffffffffffffffffffffffffffffffffffffffffffffffffffffffffffffffffc3601126102b35760043560243567ffffffffffffffff81116102b3576117117f8a3c942991b9dbc6aa087b76b9ec1abeae3454615ece41c7da7e5b04623a096b913690600401612c6d565b9061171a612dc9565b61172e611728368484612d92565b85613b3b565b61173d60405192839283613a90565b0390a2005b346102b35760207ffffffffffffffffffffffffffffffffffffffffffffffffffffffffffffffffc3601126102b357600435610104548110156117985761178a60209161389b565b90546040519160031b1c8152f35b60846040517f08c379a000000000000000000000000000000000000000000000000000000000815260206004820152602c60248201527f455243373231456e756d657261626c653a20676c6f62616c20696e646578206f60448201527f7574206f6620626f756e647300000000000000000000000000000000000000006064820152fd5b346102b3576100196107e261183036612c9b565b906040519261183e84612cfb565b60008452610ccc610cc784336131c0565b346102b35760007ffffffffffffffffffffffffffffffffffffffffffffffffffffffffffffffffc3601126102b357611886612dc9565b61188e6139f7565b6118966139f7565b6101347fffffffffffffffffffffffffffffffffffffffffffffffffffffffffffffff0081541690557f5db9ee0a495bf2e6ff9c91a7834c1ba4fdd244a5e8aa4e537bd38aeae4b073aa6020604051338152a1005b346102b35760407ffffffffffffffffffffffffffffffffffffffffffffffffffffffffffffffffc3601126102b357611922612bc9565b6024359061192f81612eb7565b8210156119715773ffffffffffffffffffffffffffffffffffffffff166000526101026020526040600020906000526020526020604060002054604051908152f35b60846040517f08c379a000000000000000000000000000000000000000000000000000000000815260206004820152602b60248201527f455243373231456e756d657261626c653a206f776e657220696e646578206f7560448201527f74206f6620626f756e64730000000000000000000000000000000000000000006064820152fd5b346102b35760407ffffffffffffffffffffffffffffffffffffffffffffffffffffffffffffffffc3601126102b35760243560995461ffff8160a01c1691828102928184041490151715611a6c5761271060409273ffffffffffffffffffffffffffffffffffffffff845193168352046020820152f35b7f4e487b7100000000000000000000000000000000000000000000000000000000600052601160045260246000fd5b346102b35760207ffffffffffffffffffffffffffffffffffffffffffffffffffffffffffffffffc3601126102b3577fec6b72b10aed766af02b35918b55be261c89aaaa4c8add826471ce35ec7f97b3602073ffffffffffffffffffffffffffffffffffffffff611b0a612bc9565b611b12612dc9565b16807fffffffffffffffffffffffff00000000000000000000000000000000000000006099541617609955604051908152a1005b346102b35760207ffffffffffffffffffffffffffffffffffffffffffffffffffffffffffffffffc3601126102b35773ffffffffffffffffffffffffffffffffffffffff611b92612bc9565b611b9a612dc9565b1680600052609a60205260ff60406000205416611c0f5780600052609a602052604060002060017fffffffffffffffffffffffffffffffffffffffffffffffffffffffffffffff008254161790557f3fbc8e71624117c0dc0fcdbe40685681cecc7c3c43de81a686cda4b61c78e35b600080a2005b60046040517feacfc0ae000000000000000000000000000000000000000000000000000000008152fd5b346102b357610019611c4a36612c9b565b91611c58610cc784336131c0565b6132c6565b346102b35760e07ffffffffffffffffffffffffffffffffffffffffffffffffffffffffffffffffc3601126102b35760043567ffffffffffffffff81116102b357611cac903690600401612c6d565b9060243567ffffffffffffffff81116102b357611ccd903690600401612c6d565b92906064359173ffffffffffffffffffffffffffffffffffffffff831683036102b35761ffff60843516608435036102b35760c4359173ffffffffffffffffffffffffffffffffffffffff831683036102b35760005460ff8160081c161595868097612443575b801561242c575b156123a857611d8793828860017fffffffffffffffffffffffffffffffffffffffffffffffffffffffffffffff00611d7f961617600055612379575b503691612d92565b953691612d92565b93611da260ff60005460081c16611d9d81613901565b613901565b80519067ffffffffffffffff821161166f578190611dc1606554612fff565b601f81116122cf575b50602090601f83116001146121eb576000926121e0575b50507fffffffffffffffffffffffffffffffffffffffffffffffffffffffffffffffff8260011b9260031b1c1916176065555b835167ffffffffffffffff811161166f57611e30606654612fff565b601f811161213d575b50602094601f821160011461207d57948192939495600092612072575b50507fffffffffffffffffffffffffffffffffffffffffffffffffffffffffffffffff8260011b9260031b1c1916176066555b611ed960ff60005460081c16611e9e81613901565b611ea781613901565b6101347fffffffffffffffffffffffffffffffffffffffffffffffffffffffffffffff008154169055611d9d81613901565b611ee233612e49565b73ffffffffffffffffffffffffffffffffffffffff8216158015612054575b610a755760a43563ffffffff811015610a755773ffffffffffffffffffffffffffffffffffffffff926044356098556099547fffffffffffffffffffff000000000000000000000000000000000000000000008575ffff000000000000000000000000000000000000000060843560a01b16931691161717609955609755167fffffffffffffffffffffffff0000000000000000000000000000000000000000609b541617609b5573ffffffffffffffffffffffffffffffffffffffff6101ca5416600052609a602052604060002060017fffffffffffffffffffffffffffffffffffffffffffffffffffffffffffffff00825416179055611fff57005b7fffffffffffffffffffffffffffffffffffffffffffffffffffffffffffff00ff600054166000557f7f26b83ff96e1f2b6a682f133852f6798a09c465da95921460cefb3847402498602060405160018152a1005b5073ffffffffffffffffffffffffffffffffffffffff811615611f01565b015190508580611e56565b7fffffffffffffffffffffffffffffffffffffffffffffffffffffffffffffffe082169560666000527f46501879b8ca8525e8c2fd519e2fbfcfa2ebea26501294aa02cbfcfb12e943549160005b888110612125575083600195969798106120ee575b505050811b01606655611e89565b01517fffffffffffffffffffffffffffffffffffffffffffffffffffffffffffffffff60f88460031b161c191690558580806120e0565b919260206001819286850151815501940192016120cb565b6066600052601f820160051c7f46501879b8ca8525e8c2fd519e2fbfcfa2ebea26501294aa02cbfcfb12e943540190602083106121b8575b601f0160051c7f46501879b8ca8525e8c2fd519e2fbfcfa2ebea26501294aa02cbfcfb12e9435401905b8181106121ac5750611e39565b6000815560010161219f565b7f46501879b8ca8525e8c2fd519e2fbfcfa2ebea26501294aa02cbfcfb12e943549150612175565b015190508680611de1565b925060656000527f8ff97419363ffd7000167f130ef7168fbea05faf9251824ca5043f113cc6a7c7906000935b7fffffffffffffffffffffffffffffffffffffffffffffffffffffffffffffffe0841685106122b45760019450837fffffffffffffffffffffffffffffffffffffffffffffffffffffffffffffffe081161061227d575b505050811b01606555611e14565b01517fffffffffffffffffffffffffffffffffffffffffffffffffffffffffffffffff60f88460031b161c1916905586808061226f565b81810151835560209485019460019093019290910190612218565b9091506065600052601f830160051c7f8ff97419363ffd7000167f130ef7168fbea05faf9251824ca5043f113cc6a7c70160208410612352575b908392915b601f820160051c7f8ff97419363ffd7000167f130ef7168fbea05faf9251824ca5043f113cc6a7c70181106123435750611dca565b6000815584935060010161230e565b507f8ff97419363ffd7000167f130ef7168fbea05faf9251824ca5043f113cc6a7c7612309565b7fffffffffffffffffffffffffffffffffffffffffffffffffffffffffffff0000166101011760005589611d77565b60846040517f08c379a000000000000000000000000000000000000000000000000000000000815260206004820152602e60248201527f496e697469616c697a61626c653a20636f6e747261637420697320616c72656160448201527f647920696e697469616c697a65640000000000000000000000000000000000006064820152fd5b50303b158015611d3b5750600160ff831614611d3b565b50600160ff831610611d34565b346102b35760207ffffffffffffffffffffffffffffffffffffffffffffffffffffffffffffffffc3601126102b35760043561ffff8116908181036102b3577fb1f3037624bd2d961f6d56696cc10ccc3a676db381e671b1bc58f0ab1f686dd5916020916124bc612dc9565b7fffffffffffffffffffff0000ffffffffffffffffffffffffffffffffffffffff75ffff00000000000000000000000000000000000000006099549260a01b16911617609955604051908152a1005b346102b35760007ffffffffffffffffffffffffffffffffffffffffffffffffffffffffffffffffc3601126102b357602061010454604051908152f35b346102b35760207ffffffffffffffffffffffffffffffffffffffffffffffffffffffffffffffffc3601126102b35761257f612bc9565b612587612dc9565b73ffffffffffffffffffffffffffffffffffffffff809116908115610a75577fffffffffffffffffffffffff0000000000000000000000000000000000000000907f9ab45fd23d2134d8834df8b027636cc1969ef5b9950b4f73bbdcf984cc4cc0736040609b549281519084168152856020820152a11617609b55005b346102b35760407ffffffffffffffffffffffffffffffffffffffffffffffffffffffffffffffffc3601126102b35761263b612bc9565b6024359073ffffffffffffffffffffffffffffffffffffffff808061265f85612fcd565b1692169180831461278b57803314908115612766575b50156126e2578260005260696020526040600020827fffffffffffffffffffffffff00000000000000000000000000000000000000008254161790556126ba83612fcd565b167f8c5be1e5ebec7d5bd14f71427d1e84f3dd0314c0f7b2291e5b200ac8c7c3b925600080a4005b60846040517f08c379a000000000000000000000000000000000000000000000000000000000815260206004820152603d60248201527f4552433732313a20617070726f76652063616c6c6572206973206e6f7420746f60448201527f6b656e206f776e6572206f7220617070726f76656420666f7220616c6c0000006064820152fd5b9050600052606a60205260406000203360005260205260ff6040600020541684612675565b60846040517f08c379a000000000000000000000000000000000000000000000000000000000815260206004820152602160248201527f4552433732313a20617070726f76616c20746f2063757272656e74206f776e6560448201527f72000000000000000000000000000000000000000000000000000000000000006064820152fd5b346102b35760207ffffffffffffffffffffffffffffffffffffffffffffffffffffffffffffffffc3601126102b3576020611580600435613052565b346102b35760007ffffffffffffffffffffffffffffffffffffffffffffffffffffffffffffffffc3601126102b357604051600060655461288b81612fff565b80845290600190818116908115610ee957506001146128b457610bb984610e7a81860382612d17565b6065600090815292507f8ff97419363ffd7000167f130ef7168fbea05faf9251824ca5043f113cc6a7c75b8284106128f7575050508101602001610e7a82610e6a565b805460208587018101919091529093019281016128df565b346102b35760207ffffffffffffffffffffffffffffffffffffffffffffffffffffffffffffffffc3601126102b35773ffffffffffffffffffffffffffffffffffffffff61295b612bc9565b612963612dc9565b1680600052609a60205260ff6040600020541615610a9f5780600052609a60205260406000207fffffffffffffffffffffffffffffffffffffffffffffffffffffffffffffff0081541690557f20c29af9eb3de2601188ceae57a4075ba3593ce15d4142aef070ac53d389356c600080a2005b346102b35760207ffffffffffffffffffffffffffffffffffffffffffffffffffffffffffffffffc3601126102b3576004357fffffffff0000000000000000000000000000000000000000000000000000000081168091036102b357807f2a55205a0000000000000000000000000000000000000000000000000000000060209214908115612a6b575b506040519015158152f35b7f4906490600000000000000000000000000000000000000000000000000000000811491508115612a9e575b5082612a60565b7f780e9d6300000000000000000000000000000000000000000000000000000000811491508115612ad1575b5082612a97565b7f80ac58cd00000000000000000000000000000000000000000000000000000000811491508115612b35575b8115612b0b575b5082612aca565b7f01ffc9a70000000000000000000000000000000000000000000000000000000091501482612b04565b7f5b5e139f0000000000000000000000000000000000000000000000000000000081149150612afd565b346102b35760207ffffffffffffffffffffffffffffffffffffffffffffffffffffffffffffffffc3601126102b3577f23050b539195eebd064c1bec834445b7d028a20c345600e868a74d7ca93c5e866020600435612bbc612dc9565b80609855604051908152a1005b6004359073ffffffffffffffffffffffffffffffffffffffff821682036102b357565b6024359073ffffffffffffffffffffffffffffffffffffffff821682036102b357565b919082519283825260005b848110612c595750507fffffffffffffffffffffffffffffffffffffffffffffffffffffffffffffffe0601f8460006020809697860101520116010190565b602081830181015184830182015201612c1a565b9181601f840112156102b35782359167ffffffffffffffff83116102b357602083818601950101116102b357565b7ffffffffffffffffffffffffffffffffffffffffffffffffffffffffffffffffc60609101126102b35773ffffffffffffffffffffffffffffffffffffffff9060043582811681036102b3579160243590811681036102b3579060443590565b6020810190811067ffffffffffffffff82111761166f57604052565b90601f7fffffffffffffffffffffffffffffffffffffffffffffffffffffffffffffffe0910116810190811067ffffffffffffffff82111761166f57604052565b67ffffffffffffffff811161166f57601f017fffffffffffffffffffffffffffffffffffffffffffffffffffffffffffffffe01660200190565b929192612d9e82612d58565b91612dac6040519384612d17565b8294818452818301116102b3578281602093846000960137010152565b73ffffffffffffffffffffffffffffffffffffffff6101ca54163303612deb57565b60646040517f08c379a000000000000000000000000000000000000000000000000000000000815260206004820152602060248201527f4f776e61626c653a2063616c6c6572206973206e6f7420746865206f776e65726044820152fd5b6101ca90815473ffffffffffffffffffffffffffffffffffffffff80921692837fffffffffffffffffffffffff00000000000000000000000000000000000000008316179055167f8be0079c531659141344cd1fd0a4f28419497f9722a3daafe3b4186f6b6457e0600080a3565b73ffffffffffffffffffffffffffffffffffffffff168015612ee457600052606860205260406000205490565b60846040517f08c379a000000000000000000000000000000000000000000000000000000000815260206004820152602960248201527f4552433732313a2061646472657373207a65726f206973206e6f74206120766160448201527f6c6964206f776e657200000000000000000000000000000000000000000000006064820152fd5b15612f6f57565b60646040517f08c379a000000000000000000000000000000000000000000000000000000000815260206004820152601860248201527f4552433732313a20696e76616c696420746f6b656e20494400000000000000006044820152fd5b600052606760205273ffffffffffffffffffffffffffffffffffffffff60406000205416612ffc811515612f68565b90565b90600182811c92168015613048575b602083101461301957565b7f4e487b7100000000000000000000000000000000000000000000000000000000600052602260045260246000fd5b91607f169161300e565b613082610b4582600052606760205273ffffffffffffffffffffffffffffffffffffffff60406000205416151590565b600052606960205273ffffffffffffffffffffffffffffffffffffffff6040600020541690565b156130b057565b60846040517f08c379a000000000000000000000000000000000000000000000000000000000815260206004820152602d60248201527f4552433732313a2063616c6c6572206973206e6f7420746f6b656e206f776e6560448201527f72206f7220617070726f766564000000000000000000000000000000000000006064820152fd5b1561313b57565b6040517f08c379a000000000000000000000000000000000000000000000000000000000815260206004820152603260248201527f4552433732313a207472616e7366657220746f206e6f6e20455243373231526560448201527f63656976657220696d706c656d656e74657200000000000000000000000000006064820152608490fd5b9073ffffffffffffffffffffffffffffffffffffffff80806131e184612fcd565b16931691838314938415613214575b5083156131fe575b50505090565b61320a91929350613052565b16143880806131f8565b909350600052606a60205260406000208260005260205260ff6040600020541692386131f0565b1561324257565b60846040517f08c379a000000000000000000000000000000000000000000000000000000000815260206004820152602560248201527f4552433732313a207472616e736665722066726f6d20696e636f72726563742060448201527f6f776e65720000000000000000000000000000000000000000000000000000006064820152fd5b906132f9906132d484612fcd565b73ffffffffffffffffffffffffffffffffffffffff848116939092918316841461323b565b81811693841561358e57836134d55750610104805486600052610105602052806040600020556801000000000000000081101561166f57610697816133449360018a9401905561389b565b8284036134a0575b5060ff610134541661341c578161336d9161336686612fcd565b161461323b565b7fddf252ad1be2c89b69c2b068fc378daa952ba7f163c4a11628f55a4df523b3ef60008481526069602052604081207fffffffffffffffffffffffff0000000000000000000000000000000000000000908181541690558382526068602052604082207fffffffffffffffffffffffffffffffffffffffffffffffffffffffffffffffff81540190558482526040822060018154019055858252606760205284604083209182541617905580a4565b60846040517f08c379a000000000000000000000000000000000000000000000000000000000815260206004820152602b60248201527f4552433732315061757361626c653a20746f6b656e207472616e73666572207760448201527f68696c65207061757365640000000000000000000000000000000000000000006064820152fd5b6134a990612eb7565b60406000858152610102602052818120838252602052868282205586815261010360205220553861334c565b8484036134e3575b50613344565b6134ec90612eb7565b7fffffffffffffffffffffffffffffffffffffffffffffffffffffffffffffffff8101908111611a6c576000908682526101039060208281526040928385205490838203613557575b50508884528383812055868452610102815282842091845252812055386134dd565b888652610102808452858720858852845285872054908a885284528587208388528452808688205586528252838520553880613535565b60846040517f08c379a0000000000000000000000000000000000000000000000000000000008152602060048201526024808201527f4552433732313a207472616e7366657220746f20746865207a65726f2061646460448201527f72657373000000000000000000000000000000000000000000000000000000006064820152fd5b3d1561363c573d9061362282612d58565b916136306040519384612d17565b82523d6000602084013e565b606090565b909190803b156137f35760206040518092817f150b7a02000000000000000000000000000000000000000000000000000000009687825233600483015273ffffffffffffffffffffffffffffffffffffffff826136b86000998a948560248501526044840152608060648401526084830190612c0f565b0393165af19082908261378c575b5050613766576136d4613611565b80519081613761576040517f08c379a000000000000000000000000000000000000000000000000000000000815260206004820152603260248201527f4552433732313a207472616e7366657220746f206e6f6e20455243373231526560448201527f63656976657220696d706c656d656e74657200000000000000000000000000006064820152608490fd5b602001fd5b7fffffffff00000000000000000000000000000000000000000000000000000000161490565b909192506020813d82116137eb575b816137a860209383612d17565b810103126137e75751907fffffffff00000000000000000000000000000000000000000000000000000000821682036137e457509038806136c6565b80fd5b5080fd5b3d915061379b565b505050600190565b919290803b15613892576138729160209160405180809581947f150b7a0200000000000000000000000000000000000000000000000000000000998a845233600485015273ffffffffffffffffffffffffffffffffffffffff809a1660248501526044840152608060648401526084830190612c0f565b03916000968791165af19082908261378c575050613766576136d4613611565b50505050600190565b61010480548210156138d2576000527f4c0be60200faa20559308cb7b5a1bb3255c16cb1cab91f525b5ae7a03d02fabe0190600090565b7f4e487b7100000000000000000000000000000000000000000000000000000000600052603260045260246000fd5b1561390857565b60846040517f08c379a000000000000000000000000000000000000000000000000000000000815260206004820152602b60248201527f496e697469616c697a61626c653a20636f6e7472616374206973206e6f74206960448201527f6e697469616c697a696e670000000000000000000000000000000000000000006064820152fd5b60ff610134541661399957565b60646040517f08c379a000000000000000000000000000000000000000000000000000000000815260206004820152601060248201527f5061757361626c653a20706175736564000000000000000000000000000000006044820152fd5b60ff610134541615613a0557565b60646040517f08c379a000000000000000000000000000000000000000000000000000000000815260206004820152601460248201527f5061757361626c653a206e6f74207061757365640000000000000000000000006044820152fd5b7fffffffffffffffffffffffffffffffffffffffffffffffffffffffffffffffff8114611a6c5760010190565b90601f836040947fffffffffffffffffffffffffffffffffffffffffffffffffffffffffffffffe093602086528160208701528686013760008582860101520116010190565b15613add57565b60646040517f08c379a000000000000000000000000000000000000000000000000000000000815260206004820152601c60248201527f4552433732313a20746f6b656e20616c7265616479206d696e746564000000006044820152fd5b919091613b6b81600052606760205273ffffffffffffffffffffffffffffffffffffffff60406000205416151590565b15613d56576000908082526020916101988352604081209085519067ffffffffffffffff8211613d2957613b9f8354612fff565b601f8111613ce6575b508490601f8311600114613c2657907ff8e1a15aba9398e019f0b49df1a4fde98ee17ae345cb5f6b5e2c27f5033e8ce7969783613c1b575b50507fffffffffffffffffffffffffffffffffffffffffffffffffffffffffffffffff8260011b9260031b1c19161790555b604051908152a1565b015190503880613be0565b91967fffffffffffffffffffffffffffffffffffffffffffffffffffffffffffffffe08816848452868420935b818110613ccf57509160019391897ff8e1a15aba9398e019f0b49df1a4fde98ee17ae345cb5f6b5e2c27f5033e8ce7999a9410613c98575b505050811b019055613c12565b01517fffffffffffffffffffffffffffffffffffffffffffffffffffffffffffffffff60f88460031b161c19169055388080613c8b565b929387600181928786015181550195019301613c53565b838252858220601f840160051c810191878510613d1f575b601f0160051c01905b818110613d145750613ba8565b828155600101613d07565b9091508190613cfe565b807f4e487b7100000000000000000000000000000000000000000000000000000000602492526041600452fd5b60846040517f08c379a000000000000000000000000000000000000000000000000000000000815260206004820152602e60248201527f45524337323155524953746f726167653a2055524920736574206f66206e6f6e60448201527f6578697374656e7420746f6b656e0000000000000000000000000000000000006064820152fdfea2646970667358221220b0e26e0c77cf961bdfecfad09eb55282a1dbbe249bd2e2b46d307502381ea27d64736f6c63430008140033",
  "linkReferences": {},
  "deployedLinkReferences": {}
}