{
  "_format": "hh-sol-artifact-1",
  "contractName": "Proxy",
  "sourceName": "contracts/proxy.sol",
  "abi": [
    {
      "inputs": [
        {
          "internalType": "address",
          "name": "_implementation",
          "type": "address"
        }
      ],
      "stateMutability": "nonpayable",
      "type": "constructor"
    },
    {
      "stateMutability": "nonpayable",
      "type": "fallback"
    },
    {
      "inputs": [],
      "name": "implementation",
      "outputs": [
        {
          "internalType": "address",
          "name": "",
          "type": "address"
        }
      ],
      "stateMutability": "view",
      "type": "function"
    },
    {
      "inputs": [],
      "name": "owner",
      "outputs": [
        {
          "internalType": "address",
          "name": "",
          "type": "address"
        }
      ],
      "stateMutability": "view",
      "type": "function"
    },
    {
      "inputs": [
        {
          "internalType": "address",
          "name": "_newImplementation",
          "type": "address"
        }
      ],
      "name": "upgradeTo",
      "outputs": [],
      "stateMutability": "nonpayable",
      "type": "function"
    }
  ],
  "bytecode": "0x60803461007c57601f61033e38819003918201601f19168301916001600160401b038311848410176100815780849260209460405283398101031261007c57516001600160a01b0381169081900361007c5760018060a01b031990816000541617600055339060015416176001556040516102a690816100988239f35b600080fd5b634e487b7160e01b600052604160045260246000fdfe6080604052600436101561001a575b34156101d5575b600080fd5b6000803560e01c9081633659cfe61461004d575080635c60da1b1461004857638da5cb5b0361000e57610183565b610131565b3461012e5760207ffffffffffffffffffffffffffffffffffffffffffffffffffffffffffffffffc36011261012e5760043573ffffffffffffffffffffffffffffffffffffffff80821680920361012a576001541633036100d2577fffffffffffffffffffffffff000000000000000000000000000000000000000082541617815580f35b7f08c379a0000000000000000000000000000000000000000000000000000000006080526020608452600e60a4527f4e6f7420617574686f72697a656400000000000000000000000000000000000060c45260646080fd5b8280fd5b80fd5b346100155760007ffffffffffffffffffffffffffffffffffffffffffffffffffffffffffffffffc36011261001557602073ffffffffffffffffffffffffffffffffffffffff60005416604051908152f35b346100155760007ffffffffffffffffffffffffffffffffffffffffffffffffffffffffffffffffc36011261001557602073ffffffffffffffffffffffffffffffffffffffff60015416604051908152f35b600073ffffffffffffffffffffffffffffffffffffffff815416801561021257818091368280378136915af43d82803e1561020e573d90f35b3d90fd5b60646040517f08c379a000000000000000000000000000000000000000000000000000000000815260206004820152601660248201527f496d706c656d656e746174696f6e206e6f7420736574000000000000000000006044820152fdfea264697066735822122052e33a89f4dbf72beca6334daf19678f65f18a23f517c60dbc9f80a0c3cdeb9064736f6c63430008140033",
  "linkReferences": {},
  "deployedLinkReferences": {}
}